{
  "contractName": "Event",
  "abi": [
    {
      "inputs": [],
      "stateMutability": "nonpayable",
      "type": "constructor"
    },
    {
      "anonymous": false,
      "inputs": [
        {
          "indexed": true,
          "internalType": "address",
          "name": "previousOwner",
          "type": "address"
        },
        {
          "indexed": true,
          "internalType": "address",
          "name": "newOwner",
          "type": "address"
        }
      ],
      "name": "OwnershipTransferred",
      "type": "event"
    },
    {
      "inputs": [
        {
          "internalType": "uint256",
          "name": "",
          "type": "uint256"
        }
      ],
      "name": "events",
      "outputs": [
        {
          "internalType": "string",
          "name": "name",
          "type": "string"
        },
        {
          "internalType": "uint256",
          "name": "price",
          "type": "uint256"
        },
        {
          "internalType": "uint256",
          "name": "totalTickets",
          "type": "uint256"
        },
        {
          "internalType": "uint256",
          "name": "remainingTickets",
          "type": "uint256"
        },
        {
          "internalType": "address",
          "name": "owner",
          "type": "address"
        },
        {
          "internalType": "bool",
          "name": "exists",
          "type": "bool"
        }
      ],
      "stateMutability": "view",
      "type": "function"
    },
    {
      "inputs": [
        {
          "internalType": "address",
          "name": "",
          "type": "address"
        },
        {
          "internalType": "uint256",
          "name": "",
          "type": "uint256"
        }
      ],
      "name": "ownedEvents",
      "outputs": [
        {
          "internalType": "uint256",
          "name": "",
          "type": "uint256"
        }
      ],
      "stateMutability": "view",
      "type": "function"
    },
    {
      "inputs": [],
      "name": "owner",
      "outputs": [
        {
          "internalType": "address",
          "name": "",
          "type": "address"
        }
      ],
      "stateMutability": "view",
      "type": "function"
    },
    {
      "inputs": [],
      "name": "renounceOwnership",
      "outputs": [],
      "stateMutability": "nonpayable",
      "type": "function"
    },
    {
      "inputs": [],
      "name": "ticketContractAddress",
      "outputs": [
        {
          "internalType": "address",
          "name": "",
          "type": "address"
        }
      ],
      "stateMutability": "view",
      "type": "function"
    },
    {
      "inputs": [
        {
          "internalType": "address",
          "name": "newOwner",
          "type": "address"
        }
      ],
      "name": "transferOwnership",
      "outputs": [],
      "stateMutability": "nonpayable",
      "type": "function"
    },
    {
      "inputs": [
        {
          "internalType": "address",
          "name": "_ticketAddress",
          "type": "address"
        }
      ],
      "name": "setTicketAddress",
      "outputs": [],
      "stateMutability": "nonpayable",
      "type": "function"
    },
    {
      "inputs": [
        {
          "internalType": "string",
          "name": "name",
          "type": "string"
        },
        {
          "internalType": "uint256",
          "name": "price",
          "type": "uint256"
        },
        {
          "internalType": "uint256",
          "name": "totalTickets",
          "type": "uint256"
        }
      ],
      "name": "organizeEvent",
      "outputs": [
        {
          "internalType": "uint256",
          "name": "",
          "type": "uint256"
        }
      ],
      "stateMutability": "nonpayable",
      "type": "function"
    },
    {
      "inputs": [
        {
          "internalType": "uint256",
          "name": "eventId",
          "type": "uint256"
        }
      ],
      "name": "purchaseTicket",
      "outputs": [],
      "stateMutability": "payable",
      "type": "function"
    },
    {
      "inputs": [
        {
          "internalType": "uint256",
          "name": "eventId",
          "type": "uint256"
        },
        {
          "internalType": "uint256",
          "name": "ticketId",
          "type": "uint256"
        },
        {
          "internalType": "string",
          "name": "pass",
          "type": "string"
        }
      ],
      "name": "redeemTicket",
      "outputs": [],
      "stateMutability": "nonpayable",
      "type": "function"
    },
    {
      "inputs": [],
      "name": "getAllOwnedEvents",
      "outputs": [
        {
          "components": [
            {
              "internalType": "string",
              "name": "name",
              "type": "string"
            },
            {
              "internalType": "uint256",
              "name": "price",
              "type": "uint256"
            },
            {
              "internalType": "uint256",
              "name": "totalTickets",
              "type": "uint256"
            },
            {
              "internalType": "uint256",
              "name": "remainingTickets",
              "type": "uint256"
            },
            {
              "internalType": "address",
              "name": "owner",
              "type": "address"
            },
            {
              "internalType": "bool",
              "name": "exists",
              "type": "bool"
            }
          ],
          "internalType": "struct Event.EventInfo[]",
          "name": "",
          "type": "tuple[]"
        }
      ],
      "stateMutability": "view",
      "type": "function"
    },
    {
      "inputs": [],
      "name": "getAllEvents",
      "outputs": [
        {
          "components": [
            {
              "internalType": "string",
              "name": "name",
              "type": "string"
            },
            {
              "internalType": "uint256",
              "name": "price",
              "type": "uint256"
            },
            {
              "internalType": "uint256",
              "name": "totalTickets",
              "type": "uint256"
            },
            {
              "internalType": "uint256",
              "name": "remainingTickets",
              "type": "uint256"
            },
            {
              "internalType": "address",
              "name": "owner",
              "type": "address"
            },
            {
              "internalType": "bool",
              "name": "exists",
              "type": "bool"
            }
          ],
          "internalType": "struct Event.EventInfo[]",
          "name": "",
          "type": "tuple[]"
        }
      ],
      "stateMutability": "view",
      "type": "function"
    }
  ],
  "bytecode": "0x608060405234801561001057600080fd5b5061002d61002261007460201b60201c565b61007c60201b60201c565b6000600160006101000a81548173ffffffffffffffffffffffffffffffffffffffff021916908373ffffffffffffffffffffffffffffffffffffffff160217905550610140565b600033905090565b60008060009054906101000a900473ffffffffffffffffffffffffffffffffffffffff169050816000806101000a81548173ffffffffffffffffffffffffffffffffffffffff021916908373ffffffffffffffffffffffffffffffffffffffff1602179055508173ffffffffffffffffffffffffffffffffffffffff168173ffffffffffffffffffffffffffffffffffffffff167f8be0079c531659141344cd1fd0a4f28419497f9722a3daafe3b4186f6b6457e060405160405180910390a35050565b61210480620001506000396000f3fe6080604052600436106100a75760003560e01c80639c3a918c116100645780639c3a918c146101c1578063af375551146101ec578063b948348c14610229578063c27a500d14610245578063ed9a5bbb14610270578063f2fde38b14610299576100a7565b80630b791430146100ac5780635935160e146100ee578063715018a61461012b5780638da5cb5b146101425780638f98011d1461016d578063932c4c1214610196575b600080fd5b3480156100b857600080fd5b506100d360048036038101906100ce91906113b7565b6102c2565b6040516100e5969594939291906114e8565b60405180910390f35b3480156100fa57600080fd5b5061011560048036038101906101109190611685565b6103c3565b60405161012291906116f4565b60405180910390f35b34801561013757600080fd5b50610140610561565b005b34801561014e57600080fd5b506101576105e9565b604051610164919061170f565b60405180910390f35b34801561017957600080fd5b50610194600480360381019061018f919061172a565b610612565b005b3480156101a257600080fd5b506101ab610948565b6040516101b8919061170f565b60405180910390f35b3480156101cd57600080fd5b506101d661096e565b6040516101e3919061195b565b60405180910390f35b3480156101f857600080fd5b50610213600480360381019061020e91906119a9565b610c0e565b60405161022091906116f4565b60405180910390f35b610243600480360381019061023e91906113b7565b610c3f565b005b34801561025157600080fd5b5061025a610e78565b604051610267919061195b565b60405180910390f35b34801561027c57600080fd5b50610297600480360381019061029291906119e9565b610ff8565b005b3480156102a557600080fd5b506102c060048036038101906102bb91906119e9565b6110b8565b005b600381815481106102d257600080fd5b90600052602060002090600502016000915090508060000180546102f590611a45565b80601f016020809104026020016040519081016040528092919081815260200182805461032190611a45565b801561036e5780601f106103435761010080835404028352916020019161036e565b820191906000526020600020905b81548152906001019060200180831161035157829003601f168201915b5050505050908060010154908060020154908060030154908060040160009054906101000a900473ffffffffffffffffffffffffffffffffffffffff16908060040160149054906101000a900460ff16905086565b600060036040518060c001604052808681526020018581526020018481526020018481526020013373ffffffffffffffffffffffffffffffffffffffff168152602001600115158152509080600181540180825580915050600190039060005260206000209060050201600090919091909150600082015181600001908051906020019061045292919061127c565b5060208201518160010155604082015181600201556060820151816003015560808201518160040160006101000a81548173ffffffffffffffffffffffffffffffffffffffff021916908373ffffffffffffffffffffffffffffffffffffffff16021790555060a08201518160040160146101000a81548160ff0219169083151502179055505050600060016003805490506104ee9190611aa6565b9050600260003373ffffffffffffffffffffffffffffffffffffffff1673ffffffffffffffffffffffffffffffffffffffff168152602001908152602001600020819080600181540180825580915050600190039060005260206000200160009091909190915055809150509392505050565b6105696111b0565b73ffffffffffffffffffffffffffffffffffffffff166105876105e9565b73ffffffffffffffffffffffffffffffffffffffff16146105dd576040517f08c379a00000000000000000000000000000000000000000000000000000000081526004016105d490611b26565b60405180910390fd5b6105e760006111b8565b565b60008060009054906101000a900473ffffffffffffffffffffffffffffffffffffffff16905090565b826003818154811061062757610626611b46565b5b906000526020600020906005020160040160009054906101000a900473ffffffffffffffffffffffffffffffffffffffff1673ffffffffffffffffffffffffffffffffffffffff163373ffffffffffffffffffffffffffffffffffffffff161461069057600080fd5b600384815481106106a4576106a3611b46565b5b906000526020600020906005020160040160149054906101000a900460ff16610702576040517f08c379a00000000000000000000000000000000000000000000000000000000081526004016106f990611bc1565b60405180910390fd5b6000600160009054906101000a900473ffffffffffffffffffffffffffffffffffffffff1690508073ffffffffffffffffffffffffffffffffffffffff1663ad507ea785876040518363ffffffff1660e01b8152600401610764929190611be1565b60206040518083038186803b15801561077c57600080fd5b505afa158015610790573d6000803e3d6000fd5b505050506040513d601f19601f820116820180604052508101906107b49190611c36565b6107f3576040517f08c379a00000000000000000000000000000000000000000000000000000000081526004016107ea90611cd5565b60405180910390fd5b60008173ffffffffffffffffffffffffffffffffffffffff16638a1602c1866040518263ffffffff1660e01b815260040161082e91906116f4565b60006040518083038186803b15801561084657600080fd5b505afa15801561085a573d6000803e3d6000fd5b505050506040513d6000823e3d601f19601f820116820180604052508101906108839190611d65565b905083805190602001208180519060200120146108d5576040517f08c379a00000000000000000000000000000000000000000000000000000000081526004016108cc90611dfa565b60405180910390fd5b8173ffffffffffffffffffffffffffffffffffffffff1663db006a75866040518263ffffffff1660e01b815260040161090e91906116f4565b600060405180830381600087803b15801561092857600080fd5b505af115801561093c573d6000803e3d6000fd5b50505050505050505050565b600160009054906101000a900473ffffffffffffffffffffffffffffffffffffffff1681565b60606000600260003373ffffffffffffffffffffffffffffffffffffffff1673ffffffffffffffffffffffffffffffffffffffff1681526020019081526020016000208054806020026020016040519081016040528092919081815260200182805480156109fb57602002820191906000526020600020905b8154815260200190600101908083116109e7575b5050505050905060008151905060008167ffffffffffffffff811115610a2457610a2361155a565b5b604051908082528060200260200182016040528015610a5d57816020015b610a4a611302565b815260200190600190039081610a425790505b50905060005b82811015610c04576003848281518110610a8057610a7f611b46565b5b602002602001015181548110610a9957610a98611b46565b5b90600052602060002090600502016040518060c0016040529081600082018054610ac290611a45565b80601f0160208091040260200160405190810160405280929190818152602001828054610aee90611a45565b8015610b3b5780601f10610b1057610100808354040283529160200191610b3b565b820191906000526020600020905b815481529060010190602001808311610b1e57829003601f168201915b505050505081526020016001820154815260200160028201548152602001600382015481526020016004820160009054906101000a900473ffffffffffffffffffffffffffffffffffffffff1673ffffffffffffffffffffffffffffffffffffffff1673ffffffffffffffffffffffffffffffffffffffff1681526020016004820160149054906101000a900460ff161515151581525050828281518110610be657610be5611b46565b5b60200260200101819052508080610bfc90611e1a565b915050610a63565b5080935050505090565b60026020528160005260406000208181548110610c2a57600080fd5b90600052602060002001600091509150505481565b60038181548110610c5357610c52611b46565b5b906000526020600020906005020160040160149054906101000a900460ff16610cb1576040517f08c379a0000000000000000000000000000000000000000000000000000000008152600401610ca890611eaf565b60405180910390fd5b600060038281548110610cc757610cc6611b46565b5b90600052602060002090600502016003015411610d19576040517f08c379a0000000000000000000000000000000000000000000000000000000008152600401610d1090611f1b565b60405180910390fd5b60038181548110610d2d57610d2c611b46565b5b9060005260206000209060050201600101543414610d80576040517f08c379a0000000000000000000000000000000000000000000000000000000008152600401610d7790611f87565b60405180910390fd5b6000600160009054906101000a900473ffffffffffffffffffffffffffffffffffffffff16905060008173ffffffffffffffffffffffffffffffffffffffff16630ecaea7333856040518363ffffffff1660e01b8152600401610de4929190611fa7565b602060405180830381600087803b158015610dfe57600080fd5b505af1158015610e12573d6000803e3d6000fd5b505050506040513d601f19601f82011682018060405250810190610e369190611fe5565b905060038381548110610e4c57610e4b611b46565b5b90600052602060002090600502016003016000815480929190610e6e90612012565b9190505550505050565b60606003805480602002602001604051908101604052809291908181526020016000905b82821015610fef57838290600052602060002090600502016040518060c0016040529081600082018054610ecf90611a45565b80601f0160208091040260200160405190810160405280929190818152602001828054610efb90611a45565b8015610f485780601f10610f1d57610100808354040283529160200191610f48565b820191906000526020600020905b815481529060010190602001808311610f2b57829003601f168201915b505050505081526020016001820154815260200160028201548152602001600382015481526020016004820160009054906101000a900473ffffffffffffffffffffffffffffffffffffffff1673ffffffffffffffffffffffffffffffffffffffff1673ffffffffffffffffffffffffffffffffffffffff1681526020016004820160149054906101000a900460ff16151515158152505081526020019060010190610e9c565b50505050905090565b6110006111b0565b73ffffffffffffffffffffffffffffffffffffffff1661101e6105e9565b73ffffffffffffffffffffffffffffffffffffffff1614611074576040517f08c379a000000000000000000000000000000000000000000000000000000000815260040161106b90611b26565b60405180910390fd5b80600160006101000a81548173ffffffffffffffffffffffffffffffffffffffff021916908373ffffffffffffffffffffffffffffffffffffffff16021790555050565b6110c06111b0565b73ffffffffffffffffffffffffffffffffffffffff166110de6105e9565b73ffffffffffffffffffffffffffffffffffffffff1614611134576040517f08c379a000000000000000000000000000000000000000000000000000000000815260040161112b90611b26565b60405180910390fd5b600073ffffffffffffffffffffffffffffffffffffffff168173ffffffffffffffffffffffffffffffffffffffff1614156111a4576040517f08c379a000000000000000000000000000000000000000000000000000000000815260040161119b906120ae565b60405180910390fd5b6111ad816111b8565b50565b600033905090565b60008060009054906101000a900473ffffffffffffffffffffffffffffffffffffffff169050816000806101000a81548173ffffffffffffffffffffffffffffffffffffffff021916908373ffffffffffffffffffffffffffffffffffffffff1602179055508173ffffffffffffffffffffffffffffffffffffffff168173ffffffffffffffffffffffffffffffffffffffff167f8be0079c531659141344cd1fd0a4f28419497f9722a3daafe3b4186f6b6457e060405160405180910390a35050565b82805461128890611a45565b90600052602060002090601f0160209004810192826112aa57600085556112f1565b82601f106112c357805160ff19168380011785556112f1565b828001600101855582156112f1579182015b828111156112f05782518255916020019190600101906112d5565b5b5090506112fe9190611350565b5090565b6040518060c0016040528060608152602001600081526020016000815260200160008152602001600073ffffffffffffffffffffffffffffffffffffffff1681526020016000151581525090565b5b80821115611369576000816000905550600101611351565b5090565b6000604051905090565b600080fd5b600080fd5b6000819050919050565b61139481611381565b811461139f57600080fd5b50565b6000813590506113b18161138b565b92915050565b6000602082840312156113cd576113cc611377565b5b60006113db848285016113a2565b91505092915050565b600081519050919050565b600082825260208201905092915050565b60005b8381101561141e578082015181840152602081019050611403565b8381111561142d576000848401525b50505050565b6000601f19601f8301169050919050565b600061144f826113e4565b61145981856113ef565b9350611469818560208601611400565b61147281611433565b840191505092915050565b61148681611381565b82525050565b600073ffffffffffffffffffffffffffffffffffffffff82169050919050565b60006114b78261148c565b9050919050565b6114c7816114ac565b82525050565b60008115159050919050565b6114e2816114cd565b82525050565b600060c08201905081810360008301526115028189611444565b9050611511602083018861147d565b61151e604083018761147d565b61152b606083018661147d565b61153860808301856114be565b61154560a08301846114d9565b979650505050505050565b600080fd5b600080fd5b7f4e487b7100000000000000000000000000000000000000000000000000000000600052604160045260246000fd5b61159282611433565b810181811067ffffffffffffffff821117156115b1576115b061155a565b5b80604052505050565b60006115c461136d565b90506115d08282611589565b919050565b600067ffffffffffffffff8211156115f0576115ef61155a565b5b6115f982611433565b9050602081019050919050565b82818337600083830152505050565b6000611628611623846115d5565b6115ba565b90508281526020810184848401111561164457611643611555565b5b61164f848285611606565b509392505050565b600082601f83011261166c5761166b611550565b5b813561167c848260208601611615565b91505092915050565b60008060006060848603121561169e5761169d611377565b5b600084013567ffffffffffffffff8111156116bc576116bb61137c565b5b6116c886828701611657565b93505060206116d9868287016113a2565b92505060406116ea868287016113a2565b9150509250925092565b6000602082019050611709600083018461147d565b92915050565b600060208201905061172460008301846114be565b92915050565b60008060006060848603121561174357611742611377565b5b6000611751868287016113a2565b9350506020611762868287016113a2565b925050604084013567ffffffffffffffff8111156117835761178261137c565b5b61178f86828701611657565b9150509250925092565b600081519050919050565b600082825260208201905092915050565b6000819050602082019050919050565b600082825260208201905092915050565b60006117e1826113e4565b6117eb81856117c5565b93506117fb818560208601611400565b61180481611433565b840191505092915050565b61181881611381565b82525050565b611827816114ac565b82525050565b611836816114cd565b82525050565b600060c083016000830151848203600086015261185982826117d6565b915050602083015161186e602086018261180f565b506040830151611881604086018261180f565b506060830151611894606086018261180f565b5060808301516118a7608086018261181e565b5060a08301516118ba60a086018261182d565b508091505092915050565b60006118d1838361183c565b905092915050565b6000602082019050919050565b60006118f182611799565b6118fb81856117a4565b93508360208202850161190d856117b5565b8060005b85811015611949578484038952815161192a85826118c5565b9450611935836118d9565b925060208a01995050600181019050611911565b50829750879550505050505092915050565b6000602082019050818103600083015261197581846118e6565b905092915050565b611986816114ac565b811461199157600080fd5b50565b6000813590506119a38161197d565b92915050565b600080604083850312156119c0576119bf611377565b5b60006119ce85828601611994565b92505060206119df858286016113a2565b9150509250929050565b6000602082840312156119ff576119fe611377565b5b6000611a0d84828501611994565b91505092915050565b7f4e487b7100000000000000000000000000000000000000000000000000000000600052602260045260246000fd5b60006002820490506001821680611a5d57607f821691505b60208210811415611a7157611a70611a16565b5b50919050565b7f4e487b7100000000000000000000000000000000000000000000000000000000600052601160045260246000fd5b6000611ab182611381565b9150611abc83611381565b925082821015611acf57611ace611a77565b5b828203905092915050565b7f4f776e61626c653a2063616c6c6572206973206e6f7420746865206f776e6572600082015250565b6000611b106020836113ef565b9150611b1b82611ada565b602082019050919050565b60006020820190508181036000830152611b3f81611b03565b9050919050565b7f4e487b7100000000000000000000000000000000000000000000000000000000600052603260045260246000fd5b7f546865206576656e7420646f6573206e6f742065786973740000000000000000600082015250565b6000611bab6018836113ef565b9150611bb682611b75565b602082019050919050565b60006020820190508181036000830152611bda81611b9e565b9050919050565b6000604082019050611bf6600083018561147d565b611c03602083018461147d565b9392505050565b611c13816114cd565b8114611c1e57600080fd5b50565b600081519050611c3081611c0a565b92915050565b600060208284031215611c4c57611c4b611377565b5b6000611c5a84828501611c21565b91505092915050565b7f5469636b6574206973206e6f742076616c696420666f7220746869732065766560008201527f6e74206f722068617320616c7265616479206265656e2072656465656d656400602082015250565b6000611cbf603f836113ef565b9150611cca82611c63565b604082019050919050565b60006020820190508181036000830152611cee81611cb2565b9050919050565b6000611d08611d03846115d5565b6115ba565b905082815260208101848484011115611d2457611d23611555565b5b611d2f848285611400565b509392505050565b600082601f830112611d4c57611d4b611550565b5b8151611d5c848260208601611cf5565b91505092915050565b600060208284031215611d7b57611d7a611377565b5b600082015167ffffffffffffffff811115611d9957611d9861137c565b5b611da584828501611d37565b91505092915050565b7f456e637279707465642070617373657320646f206e6f74206d61746368207570600082015250565b6000611de46020836113ef565b9150611def82611dae565b602082019050919050565b60006020820190508181036000830152611e1381611dd7565b9050919050565b6000611e2582611381565b91507fffffffffffffffffffffffffffffffffffffffffffffffffffffffffffffffff821415611e5857611e57611a77565b5b600182019050919050565b7f4576656e7420646f6573206e6f74206578697374000000000000000000000000600082015250565b6000611e996014836113ef565b9150611ea482611e63565b602082019050919050565b60006020820190508181036000830152611ec881611e8c565b9050919050565b7f4e6f206d6f72652072656d61696e696e67207469636b65747300000000000000600082015250565b6000611f056019836113ef565b9150611f1082611ecf565b602082019050919050565b60006020820190508181036000830152611f3481611ef8565b9050919050565b7f5061796d656e7420646f6573206e6f74206d6174636820707269636500000000600082015250565b6000611f71601c836113ef565b9150611f7c82611f3b565b602082019050919050565b60006020820190508181036000830152611fa081611f64565b9050919050565b6000604082019050611fbc60008301856114be565b611fc9602083018461147d565b9392505050565b600081519050611fdf8161138b565b92915050565b600060208284031215611ffb57611ffa611377565b5b600061200984828501611fd0565b91505092915050565b600061201d82611381565b9150600082141561203157612030611a77565b5b600182039050919050565b7f4f776e61626c653a206e6577206f776e657220697320746865207a65726f206160008201527f6464726573730000000000000000000000000000000000000000000000000000602082015250565b60006120986026836113ef565b91506120a38261203c565b604082019050919050565b600060208201905081810360008301526120c78161208b565b905091905056fea26469706673582212200ff5a5fff75302903ee2a62a85e4dbbcc6ccae353d1aa3c45f5752b2a5d0795164736f6c63430008090033",
  "immutableReferences": {},
  "source": "pragma solidity 0.8.9;\r\nimport \"@openzeppelin/contracts/access/Ownable.sol\";\r\nimport \"./Ticket.sol\";\r\n\r\ncontract Event is Ownable{\r\n    address public ticketContractAddress;\r\n\r\n    struct EventInfo {\r\n        string name;\r\n        uint price;\r\n        uint totalTickets;\r\n        uint remainingTickets;\r\n        address owner;\r\n        bool exists;\r\n    }\r\n\r\n    mapping(address => uint256[]) public ownedEvents;\r\n\r\n    EventInfo[] public events;\r\n\r\n    modifier onlyEventOwner(uint eventId) {\r\n        require(msg.sender == events[eventId].owner);\r\n        _;\r\n    }\r\n\r\n    constructor() public{\r\n        ticketContractAddress = address(0);\r\n    }\r\n\r\n    function setTicketAddress(address _ticketAddress) external onlyOwner{\r\n        ticketContractAddress = _ticketAddress;\r\n    }\r\n\r\n    function organizeEvent(string memory name, uint  price, uint  totalTickets) external returns (uint) {\r\n        events.push(EventInfo(name, price, totalTickets, totalTickets, msg.sender, true));\r\n        uint id = events.length - 1;\r\n        ownedEvents[msg.sender].push(id);\r\n        return id;\r\n    }\r\n\r\n    function purchaseTicket(uint eventId) external payable {\r\n        require(events[eventId].exists, \"Event does not exist\");\r\n        require(events[eventId].remainingTickets > 0, \"No more remaining tickets\");\r\n        require(msg.value == events[eventId].price, \"Payment does not match price\");\r\n        Ticket ticketContract = Ticket(ticketContractAddress);\r\n        uint ticketId = ticketContract.create(msg.sender, eventId);\r\n        events[eventId].remainingTickets  --;\r\n    }\r\n\r\n    function redeemTicket(uint eventId, uint ticketId, string memory pass) external onlyEventOwner(eventId){\r\n        require(events[eventId].exists, \"The event does not exist\");\r\n        Ticket ticketContract = Ticket(ticketContractAddress);\r\n        require(ticketContract.isValid(ticketId, eventId), \"Ticket is not valid for this event or has already been redeemed\");\r\n        string memory ticketPass = ticketContract.getEncryptedPass(ticketId);\r\n        require(keccak256(bytes(ticketPass)) == keccak256(bytes(pass)), \"Encrypted passes do not match up\");\r\n        ticketContract.redeem(ticketId);\r\n    }\r\n\r\n    function getAllOwnedEvents() external view returns (EventInfo[] memory) {\r\n        uint[] memory ownedEventsSender = ownedEvents[msg.sender];\r\n        uint eventCount = ownedEventsSender.length;\r\n        EventInfo[] memory eventsInfo = new EventInfo[](eventCount);\r\n        for(uint i = 0; i < eventCount; i++) {\r\n            eventsInfo[i] = events[ownedEventsSender[i]];\r\n        }\r\n        return eventsInfo;\r\n    }\r\n\r\n    function getAllEvents() external view returns (EventInfo[] memory) {\r\n        return events;\r\n    }\r\n}\r\n\r\n",
  "sourcePath": "D:\\Code\\event_ticket\\contracts\\Event.sol",
  "compiler": {
    "name": "solc",
    "version": "0.8.9+commit.e5eed63a.Emscripten.clang"
  },
  "schemaVersion": "3.4.4",
  "updatedAt": "2022-01-09T16:11:53.664Z",
  "devdoc": {
    "kind": "dev",
    "methods": {
      "owner()": {
        "details": "Returns the address of the current owner."
      },
      "renounceOwnership()": {
        "details": "Leaves the contract without owner. It will not be possible to call `onlyOwner` functions anymore. Can only be called by the current owner. NOTE: Renouncing ownership will leave the contract without an owner, thereby removing any functionality that is only available to the owner."
      },
      "transferOwnership(address)": {
        "details": "Transfers ownership of the contract to a new account (`newOwner`). Can only be called by the current owner."
      }
    },
    "version": 1
  },
  "userdoc": {
    "kind": "user",
    "methods": {},
    "version": 1
  }
}