{
  "contractName": "Event",
  "abi": [
    {
      "inputs": [],
      "stateMutability": "nonpayable",
      "type": "constructor"
    },
    {
      "anonymous": false,
      "inputs": [
        {
          "indexed": true,
          "internalType": "address",
          "name": "previousOwner",
          "type": "address"
        },
        {
          "indexed": true,
          "internalType": "address",
          "name": "newOwner",
          "type": "address"
        }
      ],
      "name": "OwnershipTransferred",
      "type": "event"
    },
    {
      "inputs": [
        {
          "internalType": "uint256",
          "name": "",
          "type": "uint256"
        }
      ],
      "name": "events",
      "outputs": [
        {
          "internalType": "string",
          "name": "name",
          "type": "string"
        },
        {
          "internalType": "uint256",
          "name": "price",
          "type": "uint256"
        },
        {
          "internalType": "uint256",
          "name": "totalTickets",
          "type": "uint256"
        },
        {
          "internalType": "uint256",
          "name": "remainingTickets",
          "type": "uint256"
        },
        {
          "internalType": "address",
          "name": "owner",
          "type": "address"
        },
        {
          "internalType": "bool",
          "name": "exists",
          "type": "bool"
        }
      ],
      "stateMutability": "view",
      "type": "function",
      "constant": true
    },
    {
      "inputs": [],
      "name": "owner",
      "outputs": [
        {
          "internalType": "address",
          "name": "",
          "type": "address"
        }
      ],
      "stateMutability": "view",
      "type": "function",
      "constant": true
    },
    {
      "inputs": [],
      "name": "renounceOwnership",
      "outputs": [],
      "stateMutability": "nonpayable",
      "type": "function"
    },
    {
      "inputs": [],
      "name": "ticketContractAddress",
      "outputs": [
        {
          "internalType": "address",
          "name": "",
          "type": "address"
        }
      ],
      "stateMutability": "view",
      "type": "function",
      "constant": true
    },
    {
      "inputs": [
        {
          "internalType": "address",
          "name": "newOwner",
          "type": "address"
        }
      ],
      "name": "transferOwnership",
      "outputs": [],
      "stateMutability": "nonpayable",
      "type": "function"
    },
    {
      "inputs": [
        {
          "internalType": "address",
          "name": "_ticketAddress",
          "type": "address"
        }
      ],
      "name": "setTicketAddress",
      "outputs": [],
      "stateMutability": "nonpayable",
      "type": "function"
    },
    {
      "inputs": [
        {
          "internalType": "string",
          "name": "name",
          "type": "string"
        },
        {
          "internalType": "uint256",
          "name": "price",
          "type": "uint256"
        },
        {
          "internalType": "uint256",
          "name": "totalTickets",
          "type": "uint256"
        }
      ],
      "name": "organizeEvent",
      "outputs": [
        {
          "internalType": "uint256",
          "name": "",
          "type": "uint256"
        }
      ],
      "stateMutability": "nonpayable",
      "type": "function"
    },
    {
      "inputs": [
        {
          "internalType": "uint256",
          "name": "eventId",
          "type": "uint256"
        }
      ],
      "name": "purchaseTicket",
      "outputs": [
        {
          "internalType": "uint256",
          "name": "",
          "type": "uint256"
        }
      ],
      "stateMutability": "payable",
      "type": "function",
      "payable": true
    },
    {
      "inputs": [
        {
          "internalType": "uint256",
          "name": "eventId",
          "type": "uint256"
        },
        {
          "internalType": "uint256",
          "name": "ticketId",
          "type": "uint256"
        },
        {
          "internalType": "string",
          "name": "pass",
          "type": "string"
        }
      ],
      "name": "redeemTicket",
      "outputs": [],
      "stateMutability": "nonpayable",
      "type": "function"
    },
    {
      "inputs": [],
      "name": "getAllOwnedEvents",
      "outputs": [
        {
          "components": [
            {
              "internalType": "string",
              "name": "name",
              "type": "string"
            },
            {
              "internalType": "uint256",
              "name": "price",
              "type": "uint256"
            },
            {
              "internalType": "uint256",
              "name": "totalTickets",
              "type": "uint256"
            },
            {
              "internalType": "uint256",
              "name": "remainingTickets",
              "type": "uint256"
            },
            {
              "internalType": "address",
              "name": "owner",
              "type": "address"
            },
            {
              "internalType": "bool",
              "name": "exists",
              "type": "bool"
            }
          ],
          "internalType": "struct Event.EventInfo[]",
          "name": "",
          "type": "tuple[]"
        }
      ],
      "stateMutability": "view",
      "type": "function",
      "constant": true
    },
    {
      "inputs": [],
      "name": "getAllEvents",
      "outputs": [
        {
          "components": [
            {
              "internalType": "string",
              "name": "name",
              "type": "string"
            },
            {
              "internalType": "uint256",
              "name": "price",
              "type": "uint256"
            },
            {
              "internalType": "uint256",
              "name": "totalTickets",
              "type": "uint256"
            },
            {
              "internalType": "uint256",
              "name": "remainingTickets",
              "type": "uint256"
            },
            {
              "internalType": "address",
              "name": "owner",
              "type": "address"
            },
            {
              "internalType": "bool",
              "name": "exists",
              "type": "bool"
            }
          ],
          "internalType": "struct Event.EventInfo[]",
          "name": "",
          "type": "tuple[]"
        }
      ],
      "stateMutability": "view",
      "type": "function",
      "constant": true
    }
  ],
  "bytecode": "0x608060405234801561001057600080fd5b5061002d61002261007460201b60201c565b61007c60201b60201c565b6000600160006101000a81548173ffffffffffffffffffffffffffffffffffffffff021916908373ffffffffffffffffffffffffffffffffffffffff160217905550610140565b600033905090565b60008060009054906101000a900473ffffffffffffffffffffffffffffffffffffffff169050816000806101000a81548173ffffffffffffffffffffffffffffffffffffffff021916908373ffffffffffffffffffffffffffffffffffffffff1602179055508173ffffffffffffffffffffffffffffffffffffffff168173ffffffffffffffffffffffffffffffffffffffff167f8be0079c531659141344cd1fd0a4f28419497f9722a3daafe3b4186f6b6457e060405160405180910390a35050565b6120b480620001506000396000f3fe60806040526004361061009c5760003560e01c8063932c4c1211610064578063932c4c121461018b5780639c3a918c146101b6578063b948348c146101e1578063c27a500d14610211578063ed9a5bbb1461023c578063f2fde38b146102655761009c565b80630b791430146100a15780635935160e146100e3578063715018a6146101205780638da5cb5b146101375780638f98011d14610162575b600080fd5b3480156100ad57600080fd5b506100c860048036038101906100c391906113a7565b61028e565b6040516100da969594939291906114d8565b60405180910390f35b3480156100ef57600080fd5b5061010a60048036038101906101059190611675565b61038f565b60405161011791906116e4565b60405180910390f35b34801561012c57600080fd5b5061013561052d565b005b34801561014357600080fd5b5061014c6105b5565b60405161015991906116ff565b60405180910390f35b34801561016e57600080fd5b506101896004803603810190610184919061171a565b6105de565b005b34801561019757600080fd5b506101a0610914565b6040516101ad91906116ff565b60405180910390f35b3480156101c257600080fd5b506101cb61093a565b6040516101d8919061194b565b60405180910390f35b6101fb60048036038101906101f691906113a7565b610be6565b60405161020891906116e4565b60405180910390f35b34801561021d57600080fd5b50610226610e68565b604051610233919061194b565b60405180910390f35b34801561024857600080fd5b50610263600480360381019061025e9190611999565b610fe8565b005b34801561027157600080fd5b5061028c60048036038101906102879190611999565b6110a8565b005b6003818154811061029e57600080fd5b90600052602060002090600502016000915090508060000180546102c1906119f5565b80601f01602080910402602001604051908101604052809291908181526020018280546102ed906119f5565b801561033a5780601f1061030f5761010080835404028352916020019161033a565b820191906000526020600020905b81548152906001019060200180831161031d57829003601f168201915b5050505050908060010154908060020154908060030154908060040160009054906101000a900473ffffffffffffffffffffffffffffffffffffffff16908060040160149054906101000a900460ff16905086565b600060036040518060c001604052808681526020018581526020018481526020018481526020013373ffffffffffffffffffffffffffffffffffffffff168152602001600115158152509080600181540180825580915050600190039060005260206000209060050201600090919091909150600082015181600001908051906020019061041e92919061126c565b5060208201518160010155604082015181600201556060820151816003015560808201518160040160006101000a81548173ffffffffffffffffffffffffffffffffffffffff021916908373ffffffffffffffffffffffffffffffffffffffff16021790555060a08201518160040160146101000a81548160ff0219169083151502179055505050600060016003805490506104ba9190611a56565b9050600260003373ffffffffffffffffffffffffffffffffffffffff1673ffffffffffffffffffffffffffffffffffffffff168152602001908152602001600020819080600181540180825580915050600190039060005260206000200160009091909190915055809150509392505050565b6105356111a0565b73ffffffffffffffffffffffffffffffffffffffff166105536105b5565b73ffffffffffffffffffffffffffffffffffffffff16146105a9576040517f08c379a00000000000000000000000000000000000000000000000000000000081526004016105a090611ad6565b60405180910390fd5b6105b360006111a8565b565b60008060009054906101000a900473ffffffffffffffffffffffffffffffffffffffff16905090565b82600381815481106105f3576105f2611af6565b5b906000526020600020906005020160040160009054906101000a900473ffffffffffffffffffffffffffffffffffffffff1673ffffffffffffffffffffffffffffffffffffffff163373ffffffffffffffffffffffffffffffffffffffff161461065c57600080fd5b600384815481106106705761066f611af6565b5b906000526020600020906005020160040160149054906101000a900460ff166106ce576040517f08c379a00000000000000000000000000000000000000000000000000000000081526004016106c590611b71565b60405180910390fd5b6000600160009054906101000a900473ffffffffffffffffffffffffffffffffffffffff1690508073ffffffffffffffffffffffffffffffffffffffff1663ad507ea785876040518363ffffffff1660e01b8152600401610730929190611b91565b60206040518083038186803b15801561074857600080fd5b505afa15801561075c573d6000803e3d6000fd5b505050506040513d601f19601f820116820180604052508101906107809190611be6565b6107bf576040517f08c379a00000000000000000000000000000000000000000000000000000000081526004016107b690611c85565b60405180910390fd5b60008173ffffffffffffffffffffffffffffffffffffffff16638a1602c1866040518263ffffffff1660e01b81526004016107fa91906116e4565b60006040518083038186803b15801561081257600080fd5b505afa158015610826573d6000803e3d6000fd5b505050506040513d6000823e3d601f19601f8201168201806040525081019061084f9190611d15565b905083805190602001208180519060200120146108a1576040517f08c379a000000000000000000000000000000000000000000000000000000000815260040161089890611daa565b60405180910390fd5b8173ffffffffffffffffffffffffffffffffffffffff1663db006a75866040518263ffffffff1660e01b81526004016108da91906116e4565b600060405180830381600087803b1580156108f457600080fd5b505af1158015610908573d6000803e3d6000fd5b50505050505050505050565b600160009054906101000a900473ffffffffffffffffffffffffffffffffffffffff1681565b60606000600260003373ffffffffffffffffffffffffffffffffffffffff1673ffffffffffffffffffffffffffffffffffffffff1681526020019081526020016000208054806020026020016040519081016040528092919081815260200182805480156109c757602002820191906000526020600020905b8154815260200190600101908083116109b3575b505050505090506000600182516109de9190611a56565b905060008167ffffffffffffffff8111156109fc576109fb61154a565b5b604051908082528060200260200182016040528015610a3557816020015b610a226112f2565b815260200190600190039081610a1a5790505b50905060005b82811015610bdc576003848281518110610a5857610a57611af6565b5b602002602001015181548110610a7157610a70611af6565b5b90600052602060002090600502016040518060c0016040529081600082018054610a9a906119f5565b80601f0160208091040260200160405190810160405280929190818152602001828054610ac6906119f5565b8015610b135780601f10610ae857610100808354040283529160200191610b13565b820191906000526020600020905b815481529060010190602001808311610af657829003601f168201915b505050505081526020016001820154815260200160028201548152602001600382015481526020016004820160009054906101000a900473ffffffffffffffffffffffffffffffffffffffff1673ffffffffffffffffffffffffffffffffffffffff1673ffffffffffffffffffffffffffffffffffffffff1681526020016004820160149054906101000a900460ff161515151581525050828281518110610bbe57610bbd611af6565b5b60200260200101819052508080610bd490611dca565b915050610a3b565b5080935050505090565b60008073ffffffffffffffffffffffffffffffffffffffff1660038381548110610c1357610c12611af6565b5b906000526020600020906005020160040160009054906101000a900473ffffffffffffffffffffffffffffffffffffffff1673ffffffffffffffffffffffffffffffffffffffff161415610c9c576040517f08c379a0000000000000000000000000000000000000000000000000000000008152600401610c9390611e5f565b60405180910390fd5b600060038381548110610cb257610cb1611af6565b5b90600052602060002090600502016003015411610d04576040517f08c379a0000000000000000000000000000000000000000000000000000000008152600401610cfb90611ecb565b60405180910390fd5b60038281548110610d1857610d17611af6565b5b9060005260206000209060050201600101543414610d6b576040517f08c379a0000000000000000000000000000000000000000000000000000000008152600401610d6290611f37565b60405180910390fd5b6000600160009054906101000a900473ffffffffffffffffffffffffffffffffffffffff16905060008173ffffffffffffffffffffffffffffffffffffffff16630ecaea7333866040518363ffffffff1660e01b8152600401610dcf929190611f57565b602060405180830381600087803b158015610de957600080fd5b505af1158015610dfd573d6000803e3d6000fd5b505050506040513d601f19601f82011682018060405250810190610e219190611f95565b905060038481548110610e3757610e36611af6565b5b90600052602060002090600502016003016000815480929190610e5990611fc2565b91905055508092505050919050565b60606003805480602002602001604051908101604052809291908181526020016000905b82821015610fdf57838290600052602060002090600502016040518060c0016040529081600082018054610ebf906119f5565b80601f0160208091040260200160405190810160405280929190818152602001828054610eeb906119f5565b8015610f385780601f10610f0d57610100808354040283529160200191610f38565b820191906000526020600020905b815481529060010190602001808311610f1b57829003601f168201915b505050505081526020016001820154815260200160028201548152602001600382015481526020016004820160009054906101000a900473ffffffffffffffffffffffffffffffffffffffff1673ffffffffffffffffffffffffffffffffffffffff1673ffffffffffffffffffffffffffffffffffffffff1681526020016004820160149054906101000a900460ff16151515158152505081526020019060010190610e8c565b50505050905090565b610ff06111a0565b73ffffffffffffffffffffffffffffffffffffffff1661100e6105b5565b73ffffffffffffffffffffffffffffffffffffffff1614611064576040517f08c379a000000000000000000000000000000000000000000000000000000000815260040161105b90611ad6565b60405180910390fd5b80600160006101000a81548173ffffffffffffffffffffffffffffffffffffffff021916908373ffffffffffffffffffffffffffffffffffffffff16021790555050565b6110b06111a0565b73ffffffffffffffffffffffffffffffffffffffff166110ce6105b5565b73ffffffffffffffffffffffffffffffffffffffff1614611124576040517f08c379a000000000000000000000000000000000000000000000000000000000815260040161111b90611ad6565b60405180910390fd5b600073ffffffffffffffffffffffffffffffffffffffff168173ffffffffffffffffffffffffffffffffffffffff161415611194576040517f08c379a000000000000000000000000000000000000000000000000000000000815260040161118b9061205e565b60405180910390fd5b61119d816111a8565b50565b600033905090565b60008060009054906101000a900473ffffffffffffffffffffffffffffffffffffffff169050816000806101000a81548173ffffffffffffffffffffffffffffffffffffffff021916908373ffffffffffffffffffffffffffffffffffffffff1602179055508173ffffffffffffffffffffffffffffffffffffffff168173ffffffffffffffffffffffffffffffffffffffff167f8be0079c531659141344cd1fd0a4f28419497f9722a3daafe3b4186f6b6457e060405160405180910390a35050565b828054611278906119f5565b90600052602060002090601f01602090048101928261129a57600085556112e1565b82601f106112b357805160ff19168380011785556112e1565b828001600101855582156112e1579182015b828111156112e05782518255916020019190600101906112c5565b5b5090506112ee9190611340565b5090565b6040518060c0016040528060608152602001600081526020016000815260200160008152602001600073ffffffffffffffffffffffffffffffffffffffff1681526020016000151581525090565b5b80821115611359576000816000905550600101611341565b5090565b6000604051905090565b600080fd5b600080fd5b6000819050919050565b61138481611371565b811461138f57600080fd5b50565b6000813590506113a18161137b565b92915050565b6000602082840312156113bd576113bc611367565b5b60006113cb84828501611392565b91505092915050565b600081519050919050565b600082825260208201905092915050565b60005b8381101561140e5780820151818401526020810190506113f3565b8381111561141d576000848401525b50505050565b6000601f19601f8301169050919050565b600061143f826113d4565b61144981856113df565b93506114598185602086016113f0565b61146281611423565b840191505092915050565b61147681611371565b82525050565b600073ffffffffffffffffffffffffffffffffffffffff82169050919050565b60006114a78261147c565b9050919050565b6114b78161149c565b82525050565b60008115159050919050565b6114d2816114bd565b82525050565b600060c08201905081810360008301526114f28189611434565b9050611501602083018861146d565b61150e604083018761146d565b61151b606083018661146d565b61152860808301856114ae565b61153560a08301846114c9565b979650505050505050565b600080fd5b600080fd5b7f4e487b7100000000000000000000000000000000000000000000000000000000600052604160045260246000fd5b61158282611423565b810181811067ffffffffffffffff821117156115a1576115a061154a565b5b80604052505050565b60006115b461135d565b90506115c08282611579565b919050565b600067ffffffffffffffff8211156115e0576115df61154a565b5b6115e982611423565b9050602081019050919050565b82818337600083830152505050565b6000611618611613846115c5565b6115aa565b90508281526020810184848401111561163457611633611545565b5b61163f8482856115f6565b509392505050565b600082601f83011261165c5761165b611540565b5b813561166c848260208601611605565b91505092915050565b60008060006060848603121561168e5761168d611367565b5b600084013567ffffffffffffffff8111156116ac576116ab61136c565b5b6116b886828701611647565b93505060206116c986828701611392565b92505060406116da86828701611392565b9150509250925092565b60006020820190506116f9600083018461146d565b92915050565b600060208201905061171460008301846114ae565b92915050565b60008060006060848603121561173357611732611367565b5b600061174186828701611392565b935050602061175286828701611392565b925050604084013567ffffffffffffffff8111156117735761177261136c565b5b61177f86828701611647565b9150509250925092565b600081519050919050565b600082825260208201905092915050565b6000819050602082019050919050565b600082825260208201905092915050565b60006117d1826113d4565b6117db81856117b5565b93506117eb8185602086016113f0565b6117f481611423565b840191505092915050565b61180881611371565b82525050565b6118178161149c565b82525050565b611826816114bd565b82525050565b600060c083016000830151848203600086015261184982826117c6565b915050602083015161185e60208601826117ff565b50604083015161187160408601826117ff565b50606083015161188460608601826117ff565b506080830151611897608086018261180e565b5060a08301516118aa60a086018261181d565b508091505092915050565b60006118c1838361182c565b905092915050565b6000602082019050919050565b60006118e182611789565b6118eb8185611794565b9350836020820285016118fd856117a5565b8060005b85811015611939578484038952815161191a85826118b5565b9450611925836118c9565b925060208a01995050600181019050611901565b50829750879550505050505092915050565b6000602082019050818103600083015261196581846118d6565b905092915050565b6119768161149c565b811461198157600080fd5b50565b6000813590506119938161196d565b92915050565b6000602082840312156119af576119ae611367565b5b60006119bd84828501611984565b91505092915050565b7f4e487b7100000000000000000000000000000000000000000000000000000000600052602260045260246000fd5b60006002820490506001821680611a0d57607f821691505b60208210811415611a2157611a206119c6565b5b50919050565b7f4e487b7100000000000000000000000000000000000000000000000000000000600052601160045260246000fd5b6000611a6182611371565b9150611a6c83611371565b925082821015611a7f57611a7e611a27565b5b828203905092915050565b7f4f776e61626c653a2063616c6c6572206973206e6f7420746865206f776e6572600082015250565b6000611ac06020836113df565b9150611acb82611a8a565b602082019050919050565b60006020820190508181036000830152611aef81611ab3565b9050919050565b7f4e487b7100000000000000000000000000000000000000000000000000000000600052603260045260246000fd5b7f546865206576656e7420646f6573206e6f742065786973740000000000000000600082015250565b6000611b5b6018836113df565b9150611b6682611b25565b602082019050919050565b60006020820190508181036000830152611b8a81611b4e565b9050919050565b6000604082019050611ba6600083018561146d565b611bb3602083018461146d565b9392505050565b611bc3816114bd565b8114611bce57600080fd5b50565b600081519050611be081611bba565b92915050565b600060208284031215611bfc57611bfb611367565b5b6000611c0a84828501611bd1565b91505092915050565b7f5469636b6574206973206e6f742076616c696420666f7220746869732065766560008201527f6e74206f722068617320616c7265616479206265656e2072656465656d656400602082015250565b6000611c6f603f836113df565b9150611c7a82611c13565b604082019050919050565b60006020820190508181036000830152611c9e81611c62565b9050919050565b6000611cb8611cb3846115c5565b6115aa565b905082815260208101848484011115611cd457611cd3611545565b5b611cdf8482856113f0565b509392505050565b600082601f830112611cfc57611cfb611540565b5b8151611d0c848260208601611ca5565b91505092915050565b600060208284031215611d2b57611d2a611367565b5b600082015167ffffffffffffffff811115611d4957611d4861136c565b5b611d5584828501611ce7565b91505092915050565b7f456e637279707465642070617373657320646f206e6f74206d61746368207570600082015250565b6000611d946020836113df565b9150611d9f82611d5e565b602082019050919050565b60006020820190508181036000830152611dc381611d87565b9050919050565b6000611dd582611371565b91507fffffffffffffffffffffffffffffffffffffffffffffffffffffffffffffffff821415611e0857611e07611a27565b5b600182019050919050565b7f4576656e7420646f6573206e6f74206578697374000000000000000000000000600082015250565b6000611e496014836113df565b9150611e5482611e13565b602082019050919050565b60006020820190508181036000830152611e7881611e3c565b9050919050565b7f4e6f206d6f72652072656d61696e696e67207469636b65747300000000000000600082015250565b6000611eb56019836113df565b9150611ec082611e7f565b602082019050919050565b60006020820190508181036000830152611ee481611ea8565b9050919050565b7f5061796d656e7420646f6573206e6f74206d6174636820707269636500000000600082015250565b6000611f21601c836113df565b9150611f2c82611eeb565b602082019050919050565b60006020820190508181036000830152611f5081611f14565b9050919050565b6000604082019050611f6c60008301856114ae565b611f79602083018461146d565b9392505050565b600081519050611f8f8161137b565b92915050565b600060208284031215611fab57611faa611367565b5b6000611fb984828501611f80565b91505092915050565b6000611fcd82611371565b91506000821415611fe157611fe0611a27565b5b600182039050919050565b7f4f776e61626c653a206e6577206f776e657220697320746865207a65726f206160008201527f6464726573730000000000000000000000000000000000000000000000000000602082015250565b60006120486026836113df565b915061205382611fec565b604082019050919050565b600060208201905081810360008301526120778161203b565b905091905056fea264697066735822122070984e505447234941e4c3f0b31ed42c594f36bec45d46dbc02c2ccd7a53eb5264736f6c63430008090033",
  "immutableReferences": {},
  "source": "pragma solidity 0.8.9;\r\nimport \"@openzeppelin/contracts/access/Ownable.sol\";\r\nimport \"./Ticket.sol\";\r\n\r\ncontract Event is Ownable{\r\n    address public ticketContractAddress;\r\n\r\n    struct EventInfo {\r\n        string name;\r\n        uint price;\r\n        uint totalTickets;\r\n        uint remainingTickets;\r\n        address owner;\r\n        bool exists;\r\n    }\r\n\r\n    mapping(address => uint256[]) internal ownedEvents;\r\n\r\n    EventInfo[] public events;\r\n\r\n    modifier onlyEventOwner(uint eventId) {\r\n        require(msg.sender == events[eventId].owner);\r\n        _;\r\n    }\r\n\r\n    constructor() public{\r\n        ticketContractAddress = address(0);\r\n    }\r\n\r\n    function setTicketAddress(address _ticketAddress) external onlyOwner{\r\n        ticketContractAddress = _ticketAddress;\r\n    }\r\n\r\n    function organizeEvent(string memory name, uint  price, uint  totalTickets) external returns (uint) {\r\n        events.push(EventInfo(name, price, totalTickets, totalTickets, msg.sender, true));\r\n        uint id = events.length - 1;\r\n        ownedEvents[msg.sender].push(id);\r\n        return id;\r\n    }\r\n\r\n    function purchaseTicket(uint eventId) external payable returns (uint) {\r\n        require(events[eventId].owner != address(0), \"Event does not exist\");\r\n        require(events[eventId].remainingTickets > 0, \"No more remaining tickets\");\r\n        require(msg.value == events[eventId].price, \"Payment does not match price\");\r\n        Ticket ticketContract = Ticket(ticketContractAddress);\r\n        uint ticketId = ticketContract.create(msg.sender, eventId);\r\n        events[eventId].remainingTickets  --;\r\n        return ticketId;\r\n    }\r\n\r\n    function redeemTicket(uint eventId, uint ticketId, string memory pass) external onlyEventOwner(eventId){\r\n        require(events[eventId].exists, \"The event does not exist\");\r\n        Ticket ticketContract = Ticket(ticketContractAddress);\r\n        require(ticketContract.isValid(ticketId, eventId), \"Ticket is not valid for this event or has already been redeemed\");\r\n        string memory ticketPass = ticketContract.getEncryptedPass(ticketId);\r\n        require(keccak256(bytes(ticketPass)) == keccak256(bytes(pass)), \"Encrypted passes do not match up\");\r\n        ticketContract.redeem(ticketId);\r\n    }\r\n\r\n    function getAllOwnedEvents() external view returns (EventInfo[] memory) {\r\n        uint[] memory ownedEventsSender = ownedEvents[msg.sender];\r\n        uint eventCount = ownedEventsSender.length - 1;\r\n        EventInfo[] memory eventsInfo = new EventInfo[](eventCount);\r\n        for(uint i = 0; i < eventCount; i++) {\r\n            eventsInfo[i] = events[ownedEventsSender[i]];\r\n        }\r\n        return eventsInfo;\r\n\r\n    }\r\n\r\n    function getAllEvents() external view returns (EventInfo[] memory) {\r\n        return events;\r\n    }\r\n}\r\n\r\n",
  "sourcePath": "D:\\Code\\event_ticket\\contracts\\Event.sol",
  "compiler": {
    "name": "solc",
    "version": "0.8.9+commit.e5eed63a.Emscripten.clang"
  },
  "schemaVersion": "3.4.4",
  "updatedAt": "2022-01-08T23:25:37.053Z",
  "networkType": "ethereum",
  "devdoc": {
    "kind": "dev",
    "methods": {
      "owner()": {
        "details": "Returns the address of the current owner."
      },
      "renounceOwnership()": {
        "details": "Leaves the contract without owner. It will not be possible to call `onlyOwner` functions anymore. Can only be called by the current owner. NOTE: Renouncing ownership will leave the contract without an owner, thereby removing any functionality that is only available to the owner."
      },
      "transferOwnership(address)": {
        "details": "Transfers ownership of the contract to a new account (`newOwner`). Can only be called by the current owner."
      }
    },
    "version": 1
  },
  "userdoc": {
    "kind": "user",
    "methods": {},
    "version": 1
  }
}