{
  "contractName": "Ticket",
  "abi": [
    {
      "inputs": [],
      "stateMutability": "nonpayable",
      "type": "constructor"
    },
    {
      "anonymous": false,
      "inputs": [
        {
          "indexed": true,
          "internalType": "address",
          "name": "owner",
          "type": "address"
        },
        {
          "indexed": true,
          "internalType": "address",
          "name": "approved",
          "type": "address"
        },
        {
          "indexed": true,
          "internalType": "uint256",
          "name": "tokenId",
          "type": "uint256"
        }
      ],
      "name": "Approval",
      "type": "event"
    },
    {
      "anonymous": false,
      "inputs": [
        {
          "indexed": true,
          "internalType": "address",
          "name": "owner",
          "type": "address"
        },
        {
          "indexed": true,
          "internalType": "address",
          "name": "operator",
          "type": "address"
        },
        {
          "indexed": false,
          "internalType": "bool",
          "name": "approved",
          "type": "bool"
        }
      ],
      "name": "ApprovalForAll",
      "type": "event"
    },
    {
      "anonymous": false,
      "inputs": [
        {
          "indexed": true,
          "internalType": "address",
          "name": "previousOwner",
          "type": "address"
        },
        {
          "indexed": true,
          "internalType": "address",
          "name": "newOwner",
          "type": "address"
        }
      ],
      "name": "OwnershipTransferred",
      "type": "event"
    },
    {
      "anonymous": false,
      "inputs": [
        {
          "indexed": true,
          "internalType": "address",
          "name": "from",
          "type": "address"
        },
        {
          "indexed": true,
          "internalType": "address",
          "name": "to",
          "type": "address"
        },
        {
          "indexed": true,
          "internalType": "uint256",
          "name": "tokenId",
          "type": "uint256"
        }
      ],
      "name": "Transfer",
      "type": "event"
    },
    {
      "inputs": [
        {
          "internalType": "address",
          "name": "to",
          "type": "address"
        },
        {
          "internalType": "uint256",
          "name": "tokenId",
          "type": "uint256"
        }
      ],
      "name": "approve",
      "outputs": [],
      "stateMutability": "nonpayable",
      "type": "function"
    },
    {
      "inputs": [
        {
          "internalType": "address",
          "name": "owner",
          "type": "address"
        }
      ],
      "name": "balanceOf",
      "outputs": [
        {
          "internalType": "uint256",
          "name": "",
          "type": "uint256"
        }
      ],
      "stateMutability": "view",
      "type": "function",
      "constant": true
    },
    {
      "inputs": [],
      "name": "eventContractAddress",
      "outputs": [
        {
          "internalType": "address",
          "name": "",
          "type": "address"
        }
      ],
      "stateMutability": "view",
      "type": "function",
      "constant": true
    },
    {
      "inputs": [
        {
          "internalType": "uint256",
          "name": "tokenId",
          "type": "uint256"
        }
      ],
      "name": "getApproved",
      "outputs": [
        {
          "internalType": "address",
          "name": "",
          "type": "address"
        }
      ],
      "stateMutability": "view",
      "type": "function",
      "constant": true
    },
    {
      "inputs": [
        {
          "internalType": "address",
          "name": "owner",
          "type": "address"
        },
        {
          "internalType": "address",
          "name": "operator",
          "type": "address"
        }
      ],
      "name": "isApprovedForAll",
      "outputs": [
        {
          "internalType": "bool",
          "name": "",
          "type": "bool"
        }
      ],
      "stateMutability": "view",
      "type": "function",
      "constant": true
    },
    {
      "inputs": [],
      "name": "name",
      "outputs": [
        {
          "internalType": "string",
          "name": "",
          "type": "string"
        }
      ],
      "stateMutability": "view",
      "type": "function",
      "constant": true
    },
    {
      "inputs": [],
      "name": "owner",
      "outputs": [
        {
          "internalType": "address",
          "name": "",
          "type": "address"
        }
      ],
      "stateMutability": "view",
      "type": "function",
      "constant": true
    },
    {
      "inputs": [
        {
          "internalType": "uint256",
          "name": "tokenId",
          "type": "uint256"
        }
      ],
      "name": "ownerOf",
      "outputs": [
        {
          "internalType": "address",
          "name": "",
          "type": "address"
        }
      ],
      "stateMutability": "view",
      "type": "function",
      "constant": true
    },
    {
      "inputs": [],
      "name": "renounceOwnership",
      "outputs": [],
      "stateMutability": "nonpayable",
      "type": "function"
    },
    {
      "inputs": [
        {
          "internalType": "address",
          "name": "from",
          "type": "address"
        },
        {
          "internalType": "address",
          "name": "to",
          "type": "address"
        },
        {
          "internalType": "uint256",
          "name": "tokenId",
          "type": "uint256"
        }
      ],
      "name": "safeTransferFrom",
      "outputs": [],
      "stateMutability": "nonpayable",
      "type": "function"
    },
    {
      "inputs": [
        {
          "internalType": "address",
          "name": "from",
          "type": "address"
        },
        {
          "internalType": "address",
          "name": "to",
          "type": "address"
        },
        {
          "internalType": "uint256",
          "name": "tokenId",
          "type": "uint256"
        },
        {
          "internalType": "bytes",
          "name": "_data",
          "type": "bytes"
        }
      ],
      "name": "safeTransferFrom",
      "outputs": [],
      "stateMutability": "nonpayable",
      "type": "function"
    },
    {
      "inputs": [
        {
          "internalType": "address",
          "name": "operator",
          "type": "address"
        },
        {
          "internalType": "bool",
          "name": "approved",
          "type": "bool"
        }
      ],
      "name": "setApprovalForAll",
      "outputs": [],
      "stateMutability": "nonpayable",
      "type": "function"
    },
    {
      "inputs": [
        {
          "internalType": "bytes4",
          "name": "interfaceId",
          "type": "bytes4"
        }
      ],
      "name": "supportsInterface",
      "outputs": [
        {
          "internalType": "bool",
          "name": "",
          "type": "bool"
        }
      ],
      "stateMutability": "view",
      "type": "function",
      "constant": true
    },
    {
      "inputs": [],
      "name": "symbol",
      "outputs": [
        {
          "internalType": "string",
          "name": "",
          "type": "string"
        }
      ],
      "stateMutability": "view",
      "type": "function",
      "constant": true
    },
    {
      "inputs": [
        {
          "internalType": "uint256",
          "name": "",
          "type": "uint256"
        }
      ],
      "name": "tickets",
      "outputs": [
        {
          "internalType": "uint256",
          "name": "eventId",
          "type": "uint256"
        },
        {
          "internalType": "bool",
          "name": "redeemed",
          "type": "bool"
        },
        {
          "internalType": "string",
          "name": "encryptedPass",
          "type": "string"
        }
      ],
      "stateMutability": "view",
      "type": "function",
      "constant": true
    },
    {
      "inputs": [
        {
          "internalType": "uint256",
          "name": "index",
          "type": "uint256"
        }
      ],
      "name": "tokenByIndex",
      "outputs": [
        {
          "internalType": "uint256",
          "name": "",
          "type": "uint256"
        }
      ],
      "stateMutability": "view",
      "type": "function",
      "constant": true
    },
    {
      "inputs": [
        {
          "internalType": "address",
          "name": "owner",
          "type": "address"
        },
        {
          "internalType": "uint256",
          "name": "index",
          "type": "uint256"
        }
      ],
      "name": "tokenOfOwnerByIndex",
      "outputs": [
        {
          "internalType": "uint256",
          "name": "",
          "type": "uint256"
        }
      ],
      "stateMutability": "view",
      "type": "function",
      "constant": true
    },
    {
      "inputs": [
        {
          "internalType": "uint256",
          "name": "tokenId",
          "type": "uint256"
        }
      ],
      "name": "tokenURI",
      "outputs": [
        {
          "internalType": "string",
          "name": "",
          "type": "string"
        }
      ],
      "stateMutability": "view",
      "type": "function",
      "constant": true
    },
    {
      "inputs": [],
      "name": "totalSupply",
      "outputs": [
        {
          "internalType": "uint256",
          "name": "",
          "type": "uint256"
        }
      ],
      "stateMutability": "view",
      "type": "function",
      "constant": true
    },
    {
      "inputs": [
        {
          "internalType": "address",
          "name": "from",
          "type": "address"
        },
        {
          "internalType": "address",
          "name": "to",
          "type": "address"
        },
        {
          "internalType": "uint256",
          "name": "tokenId",
          "type": "uint256"
        }
      ],
      "name": "transferFrom",
      "outputs": [],
      "stateMutability": "nonpayable",
      "type": "function"
    },
    {
      "inputs": [
        {
          "internalType": "address",
          "name": "newOwner",
          "type": "address"
        }
      ],
      "name": "transferOwnership",
      "outputs": [],
      "stateMutability": "nonpayable",
      "type": "function"
    },
    {
      "inputs": [
        {
          "internalType": "address",
          "name": "_eventAddress",
          "type": "address"
        }
      ],
      "name": "setEventAddress",
      "outputs": [],
      "stateMutability": "nonpayable",
      "type": "function"
    },
    {
      "inputs": [
        {
          "internalType": "address",
          "name": "buyer",
          "type": "address"
        },
        {
          "internalType": "uint256",
          "name": "eventId",
          "type": "uint256"
        }
      ],
      "name": "create",
      "outputs": [
        {
          "internalType": "uint256",
          "name": "",
          "type": "uint256"
        }
      ],
      "stateMutability": "nonpayable",
      "type": "function"
    },
    {
      "inputs": [
        {
          "internalType": "address",
          "name": "_owner",
          "type": "address"
        }
      ],
      "name": "tokensOfOwner",
      "outputs": [
        {
          "internalType": "uint256[]",
          "name": "",
          "type": "uint256[]"
        }
      ],
      "stateMutability": "view",
      "type": "function",
      "constant": true
    },
    {
      "inputs": [],
      "name": "getAllOwnedTickets",
      "outputs": [
        {
          "components": [
            {
              "internalType": "uint256",
              "name": "eventId",
              "type": "uint256"
            },
            {
              "internalType": "bool",
              "name": "redeemed",
              "type": "bool"
            },
            {
              "internalType": "string",
              "name": "encryptedPass",
              "type": "string"
            }
          ],
          "internalType": "struct Ticket.TicketInfo[]",
          "name": "",
          "type": "tuple[]"
        }
      ],
      "stateMutability": "view",
      "type": "function",
      "constant": true
    },
    {
      "inputs": [
        {
          "internalType": "uint256",
          "name": "tokenid",
          "type": "uint256"
        }
      ],
      "name": "getTicketInfo",
      "outputs": [
        {
          "components": [
            {
              "internalType": "uint256",
              "name": "eventId",
              "type": "uint256"
            },
            {
              "internalType": "bool",
              "name": "redeemed",
              "type": "bool"
            },
            {
              "internalType": "string",
              "name": "encryptedPass",
              "type": "string"
            }
          ],
          "internalType": "struct Ticket.TicketInfo",
          "name": "",
          "type": "tuple"
        }
      ],
      "stateMutability": "view",
      "type": "function",
      "constant": true
    },
    {
      "inputs": [
        {
          "internalType": "uint256",
          "name": "ticketId",
          "type": "uint256"
        },
        {
          "internalType": "string",
          "name": "pass",
          "type": "string"
        }
      ],
      "name": "setEncryptedPass",
      "outputs": [],
      "stateMutability": "nonpayable",
      "type": "function"
    },
    {
      "inputs": [
        {
          "internalType": "uint256",
          "name": "ticketId",
          "type": "uint256"
        }
      ],
      "name": "getEncryptedPass",
      "outputs": [
        {
          "internalType": "string",
          "name": "",
          "type": "string"
        }
      ],
      "stateMutability": "view",
      "type": "function",
      "constant": true
    },
    {
      "inputs": [
        {
          "internalType": "uint256",
          "name": "ticketId",
          "type": "uint256"
        }
      ],
      "name": "redeem",
      "outputs": [],
      "stateMutability": "nonpayable",
      "type": "function"
    },
    {
      "inputs": [
        {
          "internalType": "uint256",
          "name": "ticketId",
          "type": "uint256"
        },
        {
          "internalType": "uint256",
          "name": "eventId",
          "type": "uint256"
        }
      ],
      "name": "isValid",
      "outputs": [
        {
          "internalType": "bool",
          "name": "",
          "type": "bool"
        }
      ],
      "stateMutability": "view",
      "type": "function",
      "constant": true
    }
  ],
  "bytecode": "0x60806040523480156200001157600080fd5b506040518060400160405280600c81526020017f4576656e74205469636b657400000000000000000000000000000000000000008152506040518060400160405280600681526020017f5449434b45540000000000000000000000000000000000000000000000000000815250816000908051906020019062000096929190620001e8565b508060019080519060200190620000af929190620001e8565b505050620000d2620000c66200011a60201b60201c565b6200012260201b60201c565b6000600b60006101000a81548173ffffffffffffffffffffffffffffffffffffffff021916908373ffffffffffffffffffffffffffffffffffffffff160217905550620002fd565b600033905090565b6000600a60009054906101000a900473ffffffffffffffffffffffffffffffffffffffff16905081600a60006101000a81548173ffffffffffffffffffffffffffffffffffffffff021916908373ffffffffffffffffffffffffffffffffffffffff1602179055508173ffffffffffffffffffffffffffffffffffffffff168173ffffffffffffffffffffffffffffffffffffffff167f8be0079c531659141344cd1fd0a4f28419497f9722a3daafe3b4186f6b6457e060405160405180910390a35050565b828054620001f690620002c7565b90600052602060002090601f0160209004810192826200021a576000855562000266565b82601f106200023557805160ff191683800117855562000266565b8280016001018555821562000266579182015b828111156200026557825182559160200191906001019062000248565b5b50905062000275919062000279565b5090565b5b80821115620002945760008160009055506001016200027a565b5090565b7f4e487b7100000000000000000000000000000000000000000000000000000000600052602260045260246000fd5b60006002820490506001821680620002e057607f821691505b60208210811415620002f757620002f662000298565b5b50919050565b614259806200030d6000396000f3fe608060405234801561001057600080fd5b50600436106101da5760003560e01c80638462151c11610104578063ad507ea7116100a2578063db006a7511610071578063db006a75146105a3578063e985e9c5146105bf578063f2fde38b146105ef578063ff99a0631461060b576101da565b8063ad507ea714610509578063b5460deb14610539578063b88d4fde14610557578063c87b56dd14610573576101da565b80638d63976f116100de5780638d63976f146104955780638da5cb5b146104b157806395d89b41146104cf578063a22cb465146104ed576101da565b80638462151c1461041757806384d4f1a7146104475780638a1602c114610465576101da565b80632f745c591161017c5780636352211e1161014b5780636352211e1461039157806365264893146103c157806370a08231146103dd578063715018a61461040d576101da565b80632f745c59146102e357806342842e0e146103135780634f6ccce71461032f57806350b447121461035f576101da565b8063095ea7b3116101b8578063095ea7b31461025d5780630ecaea731461027957806318160ddd146102a957806323b872dd146102c7576101da565b806301ffc9a7146101df57806306fdde031461020f578063081812fc1461022d575b600080fd5b6101f960048036038101906101f49190612b31565b61063b565b6040516102069190612b79565b60405180910390f35b6102176106b5565b6040516102249190612c2d565b60405180910390f35b61024760048036038101906102429190612c85565b610747565b6040516102549190612cf3565b60405180910390f35b61027760048036038101906102729190612d3a565b6107cc565b005b610293600480360381019061028e9190612d3a565b6108e4565b6040516102a09190612d89565b60405180910390f35b6102b1610a0b565b6040516102be9190612d89565b60405180910390f35b6102e160048036038101906102dc9190612da4565b610a18565b005b6102fd60048036038101906102f89190612d3a565b610a78565b60405161030a9190612d89565b60405180910390f35b61032d60048036038101906103289190612da4565b610b1d565b005b61034960048036038101906103449190612c85565b610b3d565b6040516103569190612d89565b60405180910390f35b61037960048036038101906103749190612c85565b610bae565b60405161038893929190612df7565b60405180910390f35b6103ab60048036038101906103a69190612c85565b610c7d565b6040516103b89190612cf3565b60405180910390f35b6103db60048036038101906103d69190612f6a565b610d2f565b005b6103f760048036038101906103f29190612fc6565b610daf565b6040516104049190612d89565b60405180910390f35b610415610e67565b005b610431600480360381019061042c9190612fc6565b610eef565b60405161043e91906130b1565b60405180910390f35b61044f610f9d565b60405161045c9190612cf3565b60405180910390f35b61047f600480360381019061047a9190612c85565b610fc3565b60405161048c9190612c2d565b60405180910390f35b6104af60048036038101906104aa9190612fc6565b611080565b005b6104b9611140565b6040516104c69190612cf3565b60405180910390f35b6104d761116a565b6040516104e49190612c2d565b60405180910390f35b610507600480360381019061050291906130ff565b6111fc565b005b610523600480360381019061051e919061313f565b611212565b6040516105309190612b79565b60405180910390f35b610541611298565b60405161054e91906132ea565b60405180910390f35b610571600480360381019061056c91906133ad565b611449565b005b61058d60048036038101906105889190612c85565b6114ab565b60405161059a9190612c2d565b60405180910390f35b6105bd60048036038101906105b89190612c85565b611552565b005b6105d960048036038101906105d49190613430565b6115ed565b6040516105e69190612b79565b60405180910390f35b61060960048036038101906106049190612fc6565b611681565b005b61062560048036038101906106209190612c85565b611779565b60405161063291906134c0565b60405180910390f35b60007f780e9d63000000000000000000000000000000000000000000000000000000007bffffffffffffffffffffffffffffffffffffffffffffffffffffffff1916827bffffffffffffffffffffffffffffffffffffffffffffffffffffffff191614806106ae57506106ad826118ae565b5b9050919050565b6060600080546106c490613511565b80601f01602080910402602001604051908101604052809291908181526020018280546106f090613511565b801561073d5780601f106107125761010080835404028352916020019161073d565b820191906000526020600020905b81548152906001019060200180831161072057829003601f168201915b5050505050905090565b600061075282611990565b610791576040517f08c379a0000000000000000000000000000000000000000000000000000000008152600401610788906135b5565b60405180910390fd5b6004600083815260200190815260200160002060009054906101000a900473ffffffffffffffffffffffffffffffffffffffff169050919050565b60006107d782610c7d565b90508073ffffffffffffffffffffffffffffffffffffffff168373ffffffffffffffffffffffffffffffffffffffff161415610848576040517f08c379a000000000000000000000000000000000000000000000000000000000815260040161083f90613647565b60405180910390fd5b8073ffffffffffffffffffffffffffffffffffffffff166108676119fc565b73ffffffffffffffffffffffffffffffffffffffff1614806108965750610895816108906119fc565b6115ed565b5b6108d5576040517f08c379a00000000000000000000000000000000000000000000000000000000081526004016108cc906136d9565b60405180910390fd5b6108df8383611a04565b505050565b6000600b60009054906101000a900473ffffffffffffffffffffffffffffffffffffffff1673ffffffffffffffffffffffffffffffffffffffff163373ffffffffffffffffffffffffffffffffffffffff161461094057600080fd5b600c60405180606001604052808481526020016000151581526020016040518060200160405280600081525081525090806001815401808255809150506001900390600052602060002090600302016000909190919091506000820151816000015560208201518160010160006101000a81548160ff02191690831515021790555060408201518160020190805190602001906109de9291906129ff565b50505060006001600c805490506109f59190613728565b9050610a018482611abd565b8091505092915050565b6000600880549050905090565b610a29610a236119fc565b82611c8b565b610a68576040517f08c379a0000000000000000000000000000000000000000000000000000000008152600401610a5f906137ce565b60405180910390fd5b610a73838383611d69565b505050565b6000610a8383610daf565b8210610ac4576040517f08c379a0000000000000000000000000000000000000000000000000000000008152600401610abb90613860565b60405180910390fd5b600660008473ffffffffffffffffffffffffffffffffffffffff1673ffffffffffffffffffffffffffffffffffffffff168152602001908152602001600020600083815260200190815260200160002054905092915050565b610b3883838360405180602001604052806000815250611449565b505050565b6000610b47610a0b565b8210610b88576040517f08c379a0000000000000000000000000000000000000000000000000000000008152600401610b7f906138f2565b60405180910390fd5b60088281548110610b9c57610b9b613912565b5b90600052602060002001549050919050565b600c8181548110610bbe57600080fd5b90600052602060002090600302016000915090508060000154908060010160009054906101000a900460ff1690806002018054610bfa90613511565b80601f0160208091040260200160405190810160405280929190818152602001828054610c2690613511565b8015610c735780601f10610c4857610100808354040283529160200191610c73565b820191906000526020600020905b815481529060010190602001808311610c5657829003601f168201915b5050505050905083565b6000806002600084815260200190815260200160002060009054906101000a900473ffffffffffffffffffffffffffffffffffffffff169050600073ffffffffffffffffffffffffffffffffffffffff168173ffffffffffffffffffffffffffffffffffffffff161415610d26576040517f08c379a0000000000000000000000000000000000000000000000000000000008152600401610d1d906139b3565b60405180910390fd5b80915050919050565b81610d3981610c7d565b73ffffffffffffffffffffffffffffffffffffffff163373ffffffffffffffffffffffffffffffffffffffff1614610d7057600080fd5b81600c8481548110610d8557610d84613912565b5b90600052602060002090600302016002019080519060200190610da99291906129ff565b50505050565b60008073ffffffffffffffffffffffffffffffffffffffff168273ffffffffffffffffffffffffffffffffffffffff161415610e20576040517f08c379a0000000000000000000000000000000000000000000000000000000008152600401610e1790613a45565b60405180910390fd5b600360008373ffffffffffffffffffffffffffffffffffffffff1673ffffffffffffffffffffffffffffffffffffffff168152602001908152602001600020549050919050565b610e6f6119fc565b73ffffffffffffffffffffffffffffffffffffffff16610e8d611140565b73ffffffffffffffffffffffffffffffffffffffff1614610ee3576040517f08c379a0000000000000000000000000000000000000000000000000000000008152600401610eda90613ab1565b60405180910390fd5b610eed6000611fc5565b565b60606000610efc83610daf565b905060008167ffffffffffffffff811115610f1a57610f19612e3f565b5b604051908082528060200260200182016040528015610f485781602001602082028036833780820191505090505b50905060005b82811015610f9257610f608582610a78565b828281518110610f7357610f72613912565b5b6020026020010181815250508080610f8a90613ad1565b915050610f4e565b508092505050919050565b600b60009054906101000a900473ffffffffffffffffffffffffffffffffffffffff1681565b60606000600c8381548110610fdb57610fda613912565b5b90600052602060002090600302016002018054610ff790613511565b80601f016020809104026020016040519081016040528092919081815260200182805461102390613511565b80156110705780601f1061104557610100808354040283529160200191611070565b820191906000526020600020905b81548152906001019060200180831161105357829003601f168201915b5050505050905080915050919050565b6110886119fc565b73ffffffffffffffffffffffffffffffffffffffff166110a6611140565b73ffffffffffffffffffffffffffffffffffffffff16146110fc576040517f08c379a00000000000000000000000000000000000000000000000000000000081526004016110f390613ab1565b60405180910390fd5b80600b60006101000a81548173ffffffffffffffffffffffffffffffffffffffff021916908373ffffffffffffffffffffffffffffffffffffffff16021790555050565b6000600a60009054906101000a900473ffffffffffffffffffffffffffffffffffffffff16905090565b60606001805461117990613511565b80601f01602080910402602001604051908101604052809291908181526020018280546111a590613511565b80156111f25780601f106111c7576101008083540402835291602001916111f2565b820191906000526020600020905b8154815290600101906020018083116111d557829003601f168201915b5050505050905090565b61120e6112076119fc565b838361208b565b5050565b600061121d83611990565b801561124d575081600c848154811061123957611238613912565b5b906000526020600020906003020160000154145b8015611290575060011515600c848154811061126c5761126b613912565b5b906000526020600020906003020160010160009054906101000a900460ff16151514155b905092915050565b606060006112a533610eef565b905060008151905060008167ffffffffffffffff8111156112c9576112c8612e3f565b5b60405190808252806020026020018201604052801561130257816020015b6112ef612a85565b8152602001906001900390816112e75790505b50905060005b8281101561143f57600c84828151811061132557611324613912565b5b60200260200101518154811061133e5761133d613912565b5b9060005260206000209060030201604051806060016040529081600082015481526020016001820160009054906101000a900460ff1615151515815260200160028201805461138c90613511565b80601f01602080910402602001604051908101604052809291908181526020018280546113b890613511565b80156114055780601f106113da57610100808354040283529160200191611405565b820191906000526020600020905b8154815290600101906020018083116113e857829003601f168201915b50505050508152505082828151811061142157611420613912565b5b6020026020010181905250808061143790613ad1565b915050611308565b5080935050505090565b61145a6114546119fc565b83611c8b565b611499576040517f08c379a0000000000000000000000000000000000000000000000000000000008152600401611490906137ce565b60405180910390fd5b6114a5848484846121f8565b50505050565b60606114b682611990565b6114f5576040517f08c379a00000000000000000000000000000000000000000000000000000000081526004016114ec90613b8c565b60405180910390fd5b60006114ff612254565b9050600081511161151f576040518060200160405280600081525061154a565b806115298461226b565b60405160200161153a929190613be8565b6040516020818303038152906040525b915050919050565b600b60009054906101000a900473ffffffffffffffffffffffffffffffffffffffff1673ffffffffffffffffffffffffffffffffffffffff163373ffffffffffffffffffffffffffffffffffffffff16146115ac57600080fd5b6001600c82815481106115c2576115c1613912565b5b906000526020600020906003020160010160006101000a81548160ff02191690831515021790555050565b6000600560008473ffffffffffffffffffffffffffffffffffffffff1673ffffffffffffffffffffffffffffffffffffffff16815260200190815260200160002060008373ffffffffffffffffffffffffffffffffffffffff1673ffffffffffffffffffffffffffffffffffffffff16815260200190815260200160002060009054906101000a900460ff16905092915050565b6116896119fc565b73ffffffffffffffffffffffffffffffffffffffff166116a7611140565b73ffffffffffffffffffffffffffffffffffffffff16146116fd576040517f08c379a00000000000000000000000000000000000000000000000000000000081526004016116f490613ab1565b60405180910390fd5b600073ffffffffffffffffffffffffffffffffffffffff168173ffffffffffffffffffffffffffffffffffffffff16141561176d576040517f08c379a000000000000000000000000000000000000000000000000000000000815260040161176490613c7e565b60405180910390fd5b61177681611fc5565b50565b611781612a85565b8161178b81610c7d565b73ffffffffffffffffffffffffffffffffffffffff163373ffffffffffffffffffffffffffffffffffffffff16146117c257600080fd5b600c83815481106117d6576117d5613912565b5b9060005260206000209060030201604051806060016040529081600082015481526020016001820160009054906101000a900460ff1615151515815260200160028201805461182490613511565b80601f016020809104026020016040519081016040528092919081815260200182805461185090613511565b801561189d5780601f106118725761010080835404028352916020019161189d565b820191906000526020600020905b81548152906001019060200180831161188057829003601f168201915b505050505081525050915050919050565b60007f80ac58cd000000000000000000000000000000000000000000000000000000007bffffffffffffffffffffffffffffffffffffffffffffffffffffffff1916827bffffffffffffffffffffffffffffffffffffffffffffffffffffffff1916148061197957507f5b5e139f000000000000000000000000000000000000000000000000000000007bffffffffffffffffffffffffffffffffffffffffffffffffffffffff1916827bffffffffffffffffffffffffffffffffffffffffffffffffffffffff1916145b806119895750611988826123cc565b5b9050919050565b60008073ffffffffffffffffffffffffffffffffffffffff166002600084815260200190815260200160002060009054906101000a900473ffffffffffffffffffffffffffffffffffffffff1673ffffffffffffffffffffffffffffffffffffffff1614159050919050565b600033905090565b816004600083815260200190815260200160002060006101000a81548173ffffffffffffffffffffffffffffffffffffffff021916908373ffffffffffffffffffffffffffffffffffffffff160217905550808273ffffffffffffffffffffffffffffffffffffffff16611a7783610c7d565b73ffffffffffffffffffffffffffffffffffffffff167f8c5be1e5ebec7d5bd14f71427d1e84f3dd0314c0f7b2291e5b200ac8c7c3b92560405160405180910390a45050565b600073ffffffffffffffffffffffffffffffffffffffff168273ffffffffffffffffffffffffffffffffffffffff161415611b2d576040517f08c379a0000000000000000000000000000000000000000000000000000000008152600401611b2490613cea565b60405180910390fd5b611b3681611990565b15611b76576040517f08c379a0000000000000000000000000000000000000000000000000000000008152600401611b6d90613d56565b60405180910390fd5b611b8260008383612436565b6001600360008473ffffffffffffffffffffffffffffffffffffffff1673ffffffffffffffffffffffffffffffffffffffff1681526020019081526020016000206000828254611bd29190613d76565b92505081905550816002600083815260200190815260200160002060006101000a81548173ffffffffffffffffffffffffffffffffffffffff021916908373ffffffffffffffffffffffffffffffffffffffff160217905550808273ffffffffffffffffffffffffffffffffffffffff16600073ffffffffffffffffffffffffffffffffffffffff167fddf252ad1be2c89b69c2b068fc378daa952ba7f163c4a11628f55a4df523b3ef60405160405180910390a45050565b6000611c9682611990565b611cd5576040517f08c379a0000000000000000000000000000000000000000000000000000000008152600401611ccc90613e3e565b60405180910390fd5b6000611ce083610c7d565b90508073ffffffffffffffffffffffffffffffffffffffff168473ffffffffffffffffffffffffffffffffffffffff161480611d4f57508373ffffffffffffffffffffffffffffffffffffffff16611d3784610747565b73ffffffffffffffffffffffffffffffffffffffff16145b80611d605750611d5f81856115ed565b5b91505092915050565b8273ffffffffffffffffffffffffffffffffffffffff16611d8982610c7d565b73ffffffffffffffffffffffffffffffffffffffff1614611ddf576040517f08c379a0000000000000000000000000000000000000000000000000000000008152600401611dd690613ed0565b60405180910390fd5b600073ffffffffffffffffffffffffffffffffffffffff168273ffffffffffffffffffffffffffffffffffffffff161415611e4f576040517f08c379a0000000000000000000000000000000000000000000000000000000008152600401611e4690613f62565b60405180910390fd5b611e5a838383612436565b611e65600082611a04565b6001600360008573ffffffffffffffffffffffffffffffffffffffff1673ffffffffffffffffffffffffffffffffffffffff1681526020019081526020016000206000828254611eb59190613728565b925050819055506001600360008473ffffffffffffffffffffffffffffffffffffffff1673ffffffffffffffffffffffffffffffffffffffff1681526020019081526020016000206000828254611f0c9190613d76565b92505081905550816002600083815260200190815260200160002060006101000a81548173ffffffffffffffffffffffffffffffffffffffff021916908373ffffffffffffffffffffffffffffffffffffffff160217905550808273ffffffffffffffffffffffffffffffffffffffff168473ffffffffffffffffffffffffffffffffffffffff167fddf252ad1be2c89b69c2b068fc378daa952ba7f163c4a11628f55a4df523b3ef60405160405180910390a4505050565b6000600a60009054906101000a900473ffffffffffffffffffffffffffffffffffffffff16905081600a60006101000a81548173ffffffffffffffffffffffffffffffffffffffff021916908373ffffffffffffffffffffffffffffffffffffffff1602179055508173ffffffffffffffffffffffffffffffffffffffff168173ffffffffffffffffffffffffffffffffffffffff167f8be0079c531659141344cd1fd0a4f28419497f9722a3daafe3b4186f6b6457e060405160405180910390a35050565b8173ffffffffffffffffffffffffffffffffffffffff168373ffffffffffffffffffffffffffffffffffffffff1614156120fa576040517f08c379a00000000000000000000000000000000000000000000000000000000081526004016120f190613fce565b60405180910390fd5b80600560008573ffffffffffffffffffffffffffffffffffffffff1673ffffffffffffffffffffffffffffffffffffffff16815260200190815260200160002060008473ffffffffffffffffffffffffffffffffffffffff1673ffffffffffffffffffffffffffffffffffffffff16815260200190815260200160002060006101000a81548160ff0219169083151502179055508173ffffffffffffffffffffffffffffffffffffffff168373ffffffffffffffffffffffffffffffffffffffff167f17307eab39ab6107e8899845ad3d59bd9653f200f220920489ca2b5937696c31836040516121eb9190612b79565b60405180910390a3505050565b612203848484611d69565b61220f8484848461254a565b61224e576040517f08c379a000000000000000000000000000000000000000000000000000000000815260040161224590614060565b60405180910390fd5b50505050565b606060405180602001604052806000815250905090565b606060008214156122b3576040518060400160405280600181526020017f300000000000000000000000000000000000000000000000000000000000000081525090506123c7565b600082905060005b600082146122e55780806122ce90613ad1565b915050600a826122de91906140af565b91506122bb565b60008167ffffffffffffffff81111561230157612300612e3f565b5b6040519080825280601f01601f1916602001820160405280156123335781602001600182028036833780820191505090505b5090505b600085146123c05760018261234c9190613728565b9150600a8561235b91906140e0565b60306123679190613d76565b60f81b81838151811061237d5761237c613912565b5b60200101907effffffffffffffffffffffffffffffffffffffffffffffffffffffffffffff1916908160001a905350600a856123b991906140af565b9450612337565b8093505050505b919050565b60007f01ffc9a7000000000000000000000000000000000000000000000000000000007bffffffffffffffffffffffffffffffffffffffffffffffffffffffff1916827bffffffffffffffffffffffffffffffffffffffffffffffffffffffff1916149050919050565b6124418383836126e1565b600073ffffffffffffffffffffffffffffffffffffffff168373ffffffffffffffffffffffffffffffffffffffff1614156124845761247f816126e6565b6124c3565b8173ffffffffffffffffffffffffffffffffffffffff168373ffffffffffffffffffffffffffffffffffffffff16146124c2576124c1838261272f565b5b5b600073ffffffffffffffffffffffffffffffffffffffff168273ffffffffffffffffffffffffffffffffffffffff161415612506576125018161289c565b612545565b8273ffffffffffffffffffffffffffffffffffffffff168273ffffffffffffffffffffffffffffffffffffffff161461254457612543828261296d565b5b5b505050565b600061256b8473ffffffffffffffffffffffffffffffffffffffff166129ec565b156126d4578373ffffffffffffffffffffffffffffffffffffffff1663150b7a026125946119fc565b8786866040518563ffffffff1660e01b81526004016125b69493929190614166565b602060405180830381600087803b1580156125d057600080fd5b505af192505050801561260157506040513d601f19601f820116820180604052508101906125fe91906141c7565b60015b612684573d8060008114612631576040519150601f19603f3d011682016040523d82523d6000602084013e612636565b606091505b5060008151141561267c576040517f08c379a000000000000000000000000000000000000000000000000000000000815260040161267390614060565b60405180910390fd5b805181602001fd5b63150b7a0260e01b7bffffffffffffffffffffffffffffffffffffffffffffffffffffffff1916817bffffffffffffffffffffffffffffffffffffffffffffffffffffffff1916149150506126d9565b600190505b949350505050565b505050565b6008805490506009600083815260200190815260200160002081905550600881908060018154018082558091505060019003906000526020600020016000909190919091505550565b6000600161273c84610daf565b6127469190613728565b905060006007600084815260200190815260200160002054905081811461282b576000600660008673ffffffffffffffffffffffffffffffffffffffff1673ffffffffffffffffffffffffffffffffffffffff168152602001908152602001600020600084815260200190815260200160002054905080600660008773ffffffffffffffffffffffffffffffffffffffff1673ffffffffffffffffffffffffffffffffffffffff168152602001908152602001600020600084815260200190815260200160002081905550816007600083815260200190815260200160002081905550505b6007600084815260200190815260200160002060009055600660008573ffffffffffffffffffffffffffffffffffffffff1673ffffffffffffffffffffffffffffffffffffffff16815260200190815260200160002060008381526020019081526020016000206000905550505050565b600060016008805490506128b09190613728565b90506000600960008481526020019081526020016000205490506000600883815481106128e0576128df613912565b5b90600052602060002001549050806008838154811061290257612901613912565b5b906000526020600020018190555081600960008381526020019081526020016000208190555060096000858152602001908152602001600020600090556008805480612951576129506141f4565b5b6001900381819060005260206000200160009055905550505050565b600061297883610daf565b905081600660008573ffffffffffffffffffffffffffffffffffffffff1673ffffffffffffffffffffffffffffffffffffffff168152602001908152602001600020600083815260200190815260200160002081905550806007600084815260200190815260200160002081905550505050565b600080823b905060008111915050919050565b828054612a0b90613511565b90600052602060002090601f016020900481019282612a2d5760008555612a74565b82601f10612a4657805160ff1916838001178555612a74565b82800160010185558215612a74579182015b82811115612a73578251825591602001919060010190612a58565b5b509050612a819190612aa8565b5090565b604051806060016040528060008152602001600015158152602001606081525090565b5b80821115612ac1576000816000905550600101612aa9565b5090565b6000604051905090565b600080fd5b600080fd5b60007fffffffff0000000000000000000000000000000000000000000000000000000082169050919050565b612b0e81612ad9565b8114612b1957600080fd5b50565b600081359050612b2b81612b05565b92915050565b600060208284031215612b4757612b46612acf565b5b6000612b5584828501612b1c565b91505092915050565b60008115159050919050565b612b7381612b5e565b82525050565b6000602082019050612b8e6000830184612b6a565b92915050565b600081519050919050565b600082825260208201905092915050565b60005b83811015612bce578082015181840152602081019050612bb3565b83811115612bdd576000848401525b50505050565b6000601f19601f8301169050919050565b6000612bff82612b94565b612c098185612b9f565b9350612c19818560208601612bb0565b612c2281612be3565b840191505092915050565b60006020820190508181036000830152612c478184612bf4565b905092915050565b6000819050919050565b612c6281612c4f565b8114612c6d57600080fd5b50565b600081359050612c7f81612c59565b92915050565b600060208284031215612c9b57612c9a612acf565b5b6000612ca984828501612c70565b91505092915050565b600073ffffffffffffffffffffffffffffffffffffffff82169050919050565b6000612cdd82612cb2565b9050919050565b612ced81612cd2565b82525050565b6000602082019050612d086000830184612ce4565b92915050565b612d1781612cd2565b8114612d2257600080fd5b50565b600081359050612d3481612d0e565b92915050565b60008060408385031215612d5157612d50612acf565b5b6000612d5f85828601612d25565b9250506020612d7085828601612c70565b9150509250929050565b612d8381612c4f565b82525050565b6000602082019050612d9e6000830184612d7a565b92915050565b600080600060608486031215612dbd57612dbc612acf565b5b6000612dcb86828701612d25565b9350506020612ddc86828701612d25565b9250506040612ded86828701612c70565b9150509250925092565b6000606082019050612e0c6000830186612d7a565b612e196020830185612b6a565b8181036040830152612e2b8184612bf4565b9050949350505050565b600080fd5b600080fd5b7f4e487b7100000000000000000000000000000000000000000000000000000000600052604160045260246000fd5b612e7782612be3565b810181811067ffffffffffffffff82111715612e9657612e95612e3f565b5b80604052505050565b6000612ea9612ac5565b9050612eb58282612e6e565b919050565b600067ffffffffffffffff821115612ed557612ed4612e3f565b5b612ede82612be3565b9050602081019050919050565b82818337600083830152505050565b6000612f0d612f0884612eba565b612e9f565b905082815260208101848484011115612f2957612f28612e3a565b5b612f34848285612eeb565b509392505050565b600082601f830112612f5157612f50612e35565b5b8135612f61848260208601612efa565b91505092915050565b60008060408385031215612f8157612f80612acf565b5b6000612f8f85828601612c70565b925050602083013567ffffffffffffffff811115612fb057612faf612ad4565b5b612fbc85828601612f3c565b9150509250929050565b600060208284031215612fdc57612fdb612acf565b5b6000612fea84828501612d25565b91505092915050565b600081519050919050565b600082825260208201905092915050565b6000819050602082019050919050565b61302881612c4f565b82525050565b600061303a838361301f565b60208301905092915050565b6000602082019050919050565b600061305e82612ff3565b6130688185612ffe565b93506130738361300f565b8060005b838110156130a457815161308b888261302e565b975061309683613046565b925050600181019050613077565b5085935050505092915050565b600060208201905081810360008301526130cb8184613053565b905092915050565b6130dc81612b5e565b81146130e757600080fd5b50565b6000813590506130f9816130d3565b92915050565b6000806040838503121561311657613115612acf565b5b600061312485828601612d25565b9250506020613135858286016130ea565b9150509250929050565b6000806040838503121561315657613155612acf565b5b600061316485828601612c70565b925050602061317585828601612c70565b9150509250929050565b600081519050919050565b600082825260208201905092915050565b6000819050602082019050919050565b6131b481612b5e565b82525050565b600082825260208201905092915050565b60006131d682612b94565b6131e081856131ba565b93506131f0818560208601612bb0565b6131f981612be3565b840191505092915050565b600060608301600083015161321c600086018261301f565b50602083015161322f60208601826131ab565b506040830151848203604086015261324782826131cb565b9150508091505092915050565b60006132608383613204565b905092915050565b6000602082019050919050565b60006132808261317f565b61328a818561318a565b93508360208202850161329c8561319b565b8060005b858110156132d857848403895281516132b98582613254565b94506132c483613268565b925060208a019950506001810190506132a0565b50829750879550505050505092915050565b600060208201905081810360008301526133048184613275565b905092915050565b600067ffffffffffffffff82111561332757613326612e3f565b5b61333082612be3565b9050602081019050919050565b600061335061334b8461330c565b612e9f565b90508281526020810184848401111561336c5761336b612e3a565b5b613377848285612eeb565b509392505050565b600082601f83011261339457613393612e35565b5b81356133a484826020860161333d565b91505092915050565b600080600080608085870312156133c7576133c6612acf565b5b60006133d587828801612d25565b94505060206133e687828801612d25565b93505060406133f787828801612c70565b925050606085013567ffffffffffffffff81111561341857613417612ad4565b5b6134248782880161337f565b91505092959194509250565b6000806040838503121561344757613446612acf565b5b600061345585828601612d25565b925050602061346685828601612d25565b9150509250929050565b6000606083016000830151613488600086018261301f565b50602083015161349b60208601826131ab565b50604083015184820360408601526134b382826131cb565b9150508091505092915050565b600060208201905081810360008301526134da8184613470565b905092915050565b7f4e487b7100000000000000000000000000000000000000000000000000000000600052602260045260246000fd5b6000600282049050600182168061352957607f821691505b6020821081141561353d5761353c6134e2565b5b50919050565b7f4552433732313a20617070726f76656420717565727920666f72206e6f6e657860008201527f697374656e7420746f6b656e0000000000000000000000000000000000000000602082015250565b600061359f602c83612b9f565b91506135aa82613543565b604082019050919050565b600060208201905081810360008301526135ce81613592565b9050919050565b7f4552433732313a20617070726f76616c20746f2063757272656e74206f776e6560008201527f7200000000000000000000000000000000000000000000000000000000000000602082015250565b6000613631602183612b9f565b915061363c826135d5565b604082019050919050565b6000602082019050818103600083015261366081613624565b9050919050565b7f4552433732313a20617070726f76652063616c6c6572206973206e6f74206f7760008201527f6e6572206e6f7220617070726f76656420666f7220616c6c0000000000000000602082015250565b60006136c3603883612b9f565b91506136ce82613667565b604082019050919050565b600060208201905081810360008301526136f2816136b6565b9050919050565b7f4e487b7100000000000000000000000000000000000000000000000000000000600052601160045260246000fd5b600061373382612c4f565b915061373e83612c4f565b925082821015613751576137506136f9565b5b828203905092915050565b7f4552433732313a207472616e736665722063616c6c6572206973206e6f74206f60008201527f776e6572206e6f7220617070726f766564000000000000000000000000000000602082015250565b60006137b8603183612b9f565b91506137c38261375c565b604082019050919050565b600060208201905081810360008301526137e7816137ab565b9050919050565b7f455243373231456e756d657261626c653a206f776e657220696e646578206f7560008201527f74206f6620626f756e6473000000000000000000000000000000000000000000602082015250565b600061384a602b83612b9f565b9150613855826137ee565b604082019050919050565b600060208201905081810360008301526138798161383d565b9050919050565b7f455243373231456e756d657261626c653a20676c6f62616c20696e646578206f60008201527f7574206f6620626f756e64730000000000000000000000000000000000000000602082015250565b60006138dc602c83612b9f565b91506138e782613880565b604082019050919050565b6000602082019050818103600083015261390b816138cf565b9050919050565b7f4e487b7100000000000000000000000000000000000000000000000000000000600052603260045260246000fd5b7f4552433732313a206f776e657220717565727920666f72206e6f6e657869737460008201527f656e7420746f6b656e0000000000000000000000000000000000000000000000602082015250565b600061399d602983612b9f565b91506139a882613941565b604082019050919050565b600060208201905081810360008301526139cc81613990565b9050919050565b7f4552433732313a2062616c616e636520717565727920666f7220746865207a6560008201527f726f206164647265737300000000000000000000000000000000000000000000602082015250565b6000613a2f602a83612b9f565b9150613a3a826139d3565b604082019050919050565b60006020820190508181036000830152613a5e81613a22565b9050919050565b7f4f776e61626c653a2063616c6c6572206973206e6f7420746865206f776e6572600082015250565b6000613a9b602083612b9f565b9150613aa682613a65565b602082019050919050565b60006020820190508181036000830152613aca81613a8e565b9050919050565b6000613adc82612c4f565b91507fffffffffffffffffffffffffffffffffffffffffffffffffffffffffffffffff821415613b0f57613b0e6136f9565b5b600182019050919050565b7f4552433732314d657461646174613a2055524920717565727920666f72206e6f60008201527f6e6578697374656e7420746f6b656e0000000000000000000000000000000000602082015250565b6000613b76602f83612b9f565b9150613b8182613b1a565b604082019050919050565b60006020820190508181036000830152613ba581613b69565b9050919050565b600081905092915050565b6000613bc282612b94565b613bcc8185613bac565b9350613bdc818560208601612bb0565b80840191505092915050565b6000613bf48285613bb7565b9150613c008284613bb7565b91508190509392505050565b7f4f776e61626c653a206e6577206f776e657220697320746865207a65726f206160008201527f6464726573730000000000000000000000000000000000000000000000000000602082015250565b6000613c68602683612b9f565b9150613c7382613c0c565b604082019050919050565b60006020820190508181036000830152613c9781613c5b565b9050919050565b7f4552433732313a206d696e7420746f20746865207a65726f2061646472657373600082015250565b6000613cd4602083612b9f565b9150613cdf82613c9e565b602082019050919050565b60006020820190508181036000830152613d0381613cc7565b9050919050565b7f4552433732313a20746f6b656e20616c7265616479206d696e74656400000000600082015250565b6000613d40601c83612b9f565b9150613d4b82613d0a565b602082019050919050565b60006020820190508181036000830152613d6f81613d33565b9050919050565b6000613d8182612c4f565b9150613d8c83612c4f565b9250827fffffffffffffffffffffffffffffffffffffffffffffffffffffffffffffffff03821115613dc157613dc06136f9565b5b828201905092915050565b7f4552433732313a206f70657261746f7220717565727920666f72206e6f6e657860008201527f697374656e7420746f6b656e0000000000000000000000000000000000000000602082015250565b6000613e28602c83612b9f565b9150613e3382613dcc565b604082019050919050565b60006020820190508181036000830152613e5781613e1b565b9050919050565b7f4552433732313a207472616e73666572206f6620746f6b656e2074686174206960008201527f73206e6f74206f776e0000000000000000000000000000000000000000000000602082015250565b6000613eba602983612b9f565b9150613ec582613e5e565b604082019050919050565b60006020820190508181036000830152613ee981613ead565b9050919050565b7f4552433732313a207472616e7366657220746f20746865207a65726f2061646460008201527f7265737300000000000000000000000000000000000000000000000000000000602082015250565b6000613f4c602483612b9f565b9150613f5782613ef0565b604082019050919050565b60006020820190508181036000830152613f7b81613f3f565b9050919050565b7f4552433732313a20617070726f766520746f2063616c6c657200000000000000600082015250565b6000613fb8601983612b9f565b9150613fc382613f82565b602082019050919050565b60006020820190508181036000830152613fe781613fab565b9050919050565b7f4552433732313a207472616e7366657220746f206e6f6e20455243373231526560008201527f63656976657220696d706c656d656e7465720000000000000000000000000000602082015250565b600061404a603283612b9f565b915061405582613fee565b604082019050919050565b600060208201905081810360008301526140798161403d565b9050919050565b7f4e487b7100000000000000000000000000000000000000000000000000000000600052601260045260246000fd5b60006140ba82612c4f565b91506140c583612c4f565b9250826140d5576140d4614080565b5b828204905092915050565b60006140eb82612c4f565b91506140f683612c4f565b92508261410657614105614080565b5b828206905092915050565b600081519050919050565b600082825260208201905092915050565b600061413882614111565b614142818561411c565b9350614152818560208601612bb0565b61415b81612be3565b840191505092915050565b600060808201905061417b6000830187612ce4565b6141886020830186612ce4565b6141956040830185612d7a565b81810360608301526141a7818461412d565b905095945050505050565b6000815190506141c181612b05565b92915050565b6000602082840312156141dd576141dc612acf565b5b60006141eb848285016141b2565b91505092915050565b7f4e487b7100000000000000000000000000000000000000000000000000000000600052603160045260246000fdfea26469706673582212202c75a12b4d714ae8ad38790ce98c8d2f59783deef6ac8e555a61dd58d372045464736f6c63430008090033",
  "immutableReferences": {},
  "source": "pragma solidity 0.8.9;\r\nimport \"@openzeppelin/contracts/access/Ownable.sol\";\r\nimport \"@openzeppelin/contracts/token/ERC721/extensions/ERC721Enumerable.sol\";\r\n\r\ncontract Ticket is ERC721Enumerable, Ownable{\r\n    address public eventContractAddress;\r\n\r\n\r\n\r\n    struct TicketInfo {\r\n        uint256 eventId;\r\n        bool redeemed;\r\n        string encryptedPass;\r\n    }\r\n\r\n\r\n    //todo eventueel add mappings waar relatie tussen owner en tokens in beide richting worden opgeslaan\r\n\r\n    TicketInfo[] public tickets;\r\n\r\n    modifier onlyEventContract() {\r\n        require(msg.sender == eventContractAddress);\r\n        _;\r\n    }\r\n\r\n    modifier onlyTicketOwner(uint id) {\r\n        require(msg.sender == ownerOf(id));\r\n        _;\r\n    }\r\n\r\n    constructor() ERC721(\"Event Ticket\", \"TICKET\") public {\r\n        eventContractAddress = address(0);\r\n    }\r\n\r\n    function setEventAddress(address _eventAddress) external onlyOwner {\r\n        eventContractAddress = _eventAddress;\r\n    }\r\n\r\n\r\n    function create (address buyer, uint256 eventId) external onlyEventContract returns (uint) {\r\n        tickets.push(TicketInfo(eventId, false, \"\"));\r\n        uint id = tickets.length - 1;\r\n        _mint(buyer, id);\r\n        return id;\r\n    }\r\n\r\n    function tokensOfOwner(address _owner) public view returns (uint[] memory) {\r\n        uint tokenCount = balanceOf(_owner);\r\n        uint[] memory tokensId = new uint256[](tokenCount);\r\n        for(uint i = 0; i < tokenCount; i++) {\r\n            tokensId[i] = tokenOfOwnerByIndex(_owner, i);\r\n        }\r\n        return tokensId;\r\n    }\r\n\r\n    function getAllOwnedTickets() external view returns (TicketInfo[] memory) {\r\n        uint[] memory ownedTicketsSender = tokensOfOwner(msg.sender);\r\n        uint ticketCount = ownedTicketsSender.length;\r\n        TicketInfo[] memory ticketsInfo = new TicketInfo[](ticketCount);\r\n        for(uint i = 0; i < ticketCount; i++) {\r\n            ticketsInfo[i] = tickets[ownedTicketsSender[i]];\r\n        }\r\n        return ticketsInfo;\r\n    }\r\n\r\n    function getTicketInfo(uint tokenid) external view onlyTicketOwner(tokenid) returns (TicketInfo memory) {\r\n        return tickets[tokenid];\r\n    }\r\n\r\n    function setEncryptedPass(uint ticketId, string memory pass) onlyTicketOwner(ticketId) external {\r\n        tickets[ticketId].encryptedPass = pass;\r\n    }\r\n\r\n    function getEncryptedPass(uint ticketId) external  view returns (string memory) {\r\n        string memory pass = tickets[ticketId].encryptedPass;\r\n        return pass;\r\n    }\r\n\r\n    function redeem(uint ticketId) external onlyEventContract {\r\n        tickets[ticketId].redeemed = true;\r\n    }\r\n\r\n    function isValid(uint ticketId, uint eventId) external view returns (bool) {\r\n        return\r\n        _exists(ticketId) &&\r\n        (tickets[ticketId].eventId == eventId) &&\r\n        (tickets[ticketId].redeemed != true);\r\n    }\r\n\r\n\r\n}\r\n",
  "sourcePath": "D:\\Code\\event_ticket\\contracts\\Ticket.sol",
  "compiler": {
    "name": "solc",
    "version": "0.8.9+commit.e5eed63a.Emscripten.clang"
  },
  "schemaVersion": "3.4.4",
  "updatedAt": "2022-01-09T08:25:17.822Z",
  "networkType": "ethereum",
  "devdoc": {
    "kind": "dev",
    "methods": {
      "approve(address,uint256)": {
        "details": "See {IERC721-approve}."
      },
      "balanceOf(address)": {
        "details": "See {IERC721-balanceOf}."
      },
      "getApproved(uint256)": {
        "details": "See {IERC721-getApproved}."
      },
      "isApprovedForAll(address,address)": {
        "details": "See {IERC721-isApprovedForAll}."
      },
      "name()": {
        "details": "See {IERC721Metadata-name}."
      },
      "owner()": {
        "details": "Returns the address of the current owner."
      },
      "ownerOf(uint256)": {
        "details": "See {IERC721-ownerOf}."
      },
      "renounceOwnership()": {
        "details": "Leaves the contract without owner. It will not be possible to call `onlyOwner` functions anymore. Can only be called by the current owner. NOTE: Renouncing ownership will leave the contract without an owner, thereby removing any functionality that is only available to the owner."
      },
      "safeTransferFrom(address,address,uint256)": {
        "details": "See {IERC721-safeTransferFrom}."
      },
      "safeTransferFrom(address,address,uint256,bytes)": {
        "details": "See {IERC721-safeTransferFrom}."
      },
      "setApprovalForAll(address,bool)": {
        "details": "See {IERC721-setApprovalForAll}."
      },
      "supportsInterface(bytes4)": {
        "details": "See {IERC165-supportsInterface}."
      },
      "symbol()": {
        "details": "See {IERC721Metadata-symbol}."
      },
      "tokenByIndex(uint256)": {
        "details": "See {IERC721Enumerable-tokenByIndex}."
      },
      "tokenOfOwnerByIndex(address,uint256)": {
        "details": "See {IERC721Enumerable-tokenOfOwnerByIndex}."
      },
      "tokenURI(uint256)": {
        "details": "See {IERC721Metadata-tokenURI}."
      },
      "totalSupply()": {
        "details": "See {IERC721Enumerable-totalSupply}."
      },
      "transferFrom(address,address,uint256)": {
        "details": "See {IERC721-transferFrom}."
      },
      "transferOwnership(address)": {
        "details": "Transfers ownership of the contract to a new account (`newOwner`). Can only be called by the current owner."
      }
    },
    "version": 1
  },
  "userdoc": {
    "kind": "user",
    "methods": {},
    "version": 1
  }
}