{
  "contractName": "Ticket",
  "abi": [
    {
      "inputs": [],
      "stateMutability": "nonpayable",
      "type": "constructor"
    },
    {
      "anonymous": false,
      "inputs": [
        {
          "indexed": true,
          "internalType": "address",
          "name": "owner",
          "type": "address"
        },
        {
          "indexed": true,
          "internalType": "address",
          "name": "approved",
          "type": "address"
        },
        {
          "indexed": true,
          "internalType": "uint256",
          "name": "tokenId",
          "type": "uint256"
        }
      ],
      "name": "Approval",
      "type": "event"
    },
    {
      "anonymous": false,
      "inputs": [
        {
          "indexed": true,
          "internalType": "address",
          "name": "owner",
          "type": "address"
        },
        {
          "indexed": true,
          "internalType": "address",
          "name": "operator",
          "type": "address"
        },
        {
          "indexed": false,
          "internalType": "bool",
          "name": "approved",
          "type": "bool"
        }
      ],
      "name": "ApprovalForAll",
      "type": "event"
    },
    {
      "anonymous": false,
      "inputs": [
        {
          "indexed": true,
          "internalType": "address",
          "name": "previousOwner",
          "type": "address"
        },
        {
          "indexed": true,
          "internalType": "address",
          "name": "newOwner",
          "type": "address"
        }
      ],
      "name": "OwnershipTransferred",
      "type": "event"
    },
    {
      "anonymous": false,
      "inputs": [
        {
          "indexed": true,
          "internalType": "address",
          "name": "from",
          "type": "address"
        },
        {
          "indexed": true,
          "internalType": "address",
          "name": "to",
          "type": "address"
        },
        {
          "indexed": true,
          "internalType": "uint256",
          "name": "tokenId",
          "type": "uint256"
        }
      ],
      "name": "Transfer",
      "type": "event"
    },
    {
      "inputs": [
        {
          "internalType": "address",
          "name": "to",
          "type": "address"
        },
        {
          "internalType": "uint256",
          "name": "tokenId",
          "type": "uint256"
        }
      ],
      "name": "approve",
      "outputs": [],
      "stateMutability": "nonpayable",
      "type": "function"
    },
    {
      "inputs": [
        {
          "internalType": "address",
          "name": "owner",
          "type": "address"
        }
      ],
      "name": "balanceOf",
      "outputs": [
        {
          "internalType": "uint256",
          "name": "",
          "type": "uint256"
        }
      ],
      "stateMutability": "view",
      "type": "function",
      "constant": true
    },
    {
      "inputs": [],
      "name": "eventContractAddress",
      "outputs": [
        {
          "internalType": "address",
          "name": "",
          "type": "address"
        }
      ],
      "stateMutability": "view",
      "type": "function",
      "constant": true
    },
    {
      "inputs": [
        {
          "internalType": "uint256",
          "name": "tokenId",
          "type": "uint256"
        }
      ],
      "name": "getApproved",
      "outputs": [
        {
          "internalType": "address",
          "name": "",
          "type": "address"
        }
      ],
      "stateMutability": "view",
      "type": "function",
      "constant": true
    },
    {
      "inputs": [
        {
          "internalType": "address",
          "name": "owner",
          "type": "address"
        },
        {
          "internalType": "address",
          "name": "operator",
          "type": "address"
        }
      ],
      "name": "isApprovedForAll",
      "outputs": [
        {
          "internalType": "bool",
          "name": "",
          "type": "bool"
        }
      ],
      "stateMutability": "view",
      "type": "function",
      "constant": true
    },
    {
      "inputs": [],
      "name": "name",
      "outputs": [
        {
          "internalType": "string",
          "name": "",
          "type": "string"
        }
      ],
      "stateMutability": "view",
      "type": "function",
      "constant": true
    },
    {
      "inputs": [],
      "name": "owner",
      "outputs": [
        {
          "internalType": "address",
          "name": "",
          "type": "address"
        }
      ],
      "stateMutability": "view",
      "type": "function",
      "constant": true
    },
    {
      "inputs": [
        {
          "internalType": "uint256",
          "name": "tokenId",
          "type": "uint256"
        }
      ],
      "name": "ownerOf",
      "outputs": [
        {
          "internalType": "address",
          "name": "",
          "type": "address"
        }
      ],
      "stateMutability": "view",
      "type": "function",
      "constant": true
    },
    {
      "inputs": [],
      "name": "renounceOwnership",
      "outputs": [],
      "stateMutability": "nonpayable",
      "type": "function"
    },
    {
      "inputs": [
        {
          "internalType": "address",
          "name": "from",
          "type": "address"
        },
        {
          "internalType": "address",
          "name": "to",
          "type": "address"
        },
        {
          "internalType": "uint256",
          "name": "tokenId",
          "type": "uint256"
        }
      ],
      "name": "safeTransferFrom",
      "outputs": [],
      "stateMutability": "nonpayable",
      "type": "function"
    },
    {
      "inputs": [
        {
          "internalType": "address",
          "name": "from",
          "type": "address"
        },
        {
          "internalType": "address",
          "name": "to",
          "type": "address"
        },
        {
          "internalType": "uint256",
          "name": "tokenId",
          "type": "uint256"
        },
        {
          "internalType": "bytes",
          "name": "_data",
          "type": "bytes"
        }
      ],
      "name": "safeTransferFrom",
      "outputs": [],
      "stateMutability": "nonpayable",
      "type": "function"
    },
    {
      "inputs": [
        {
          "internalType": "address",
          "name": "operator",
          "type": "address"
        },
        {
          "internalType": "bool",
          "name": "approved",
          "type": "bool"
        }
      ],
      "name": "setApprovalForAll",
      "outputs": [],
      "stateMutability": "nonpayable",
      "type": "function"
    },
    {
      "inputs": [
        {
          "internalType": "bytes4",
          "name": "interfaceId",
          "type": "bytes4"
        }
      ],
      "name": "supportsInterface",
      "outputs": [
        {
          "internalType": "bool",
          "name": "",
          "type": "bool"
        }
      ],
      "stateMutability": "view",
      "type": "function",
      "constant": true
    },
    {
      "inputs": [],
      "name": "symbol",
      "outputs": [
        {
          "internalType": "string",
          "name": "",
          "type": "string"
        }
      ],
      "stateMutability": "view",
      "type": "function",
      "constant": true
    },
    {
      "inputs": [
        {
          "internalType": "uint256",
          "name": "",
          "type": "uint256"
        }
      ],
      "name": "tickets",
      "outputs": [
        {
          "internalType": "uint256",
          "name": "eventId",
          "type": "uint256"
        },
        {
          "internalType": "bool",
          "name": "redeemed",
          "type": "bool"
        },
        {
          "internalType": "string",
          "name": "encryptedPass",
          "type": "string"
        }
      ],
      "stateMutability": "view",
      "type": "function",
      "constant": true
    },
    {
      "inputs": [
        {
          "internalType": "uint256",
          "name": "index",
          "type": "uint256"
        }
      ],
      "name": "tokenByIndex",
      "outputs": [
        {
          "internalType": "uint256",
          "name": "",
          "type": "uint256"
        }
      ],
      "stateMutability": "view",
      "type": "function",
      "constant": true
    },
    {
      "inputs": [
        {
          "internalType": "address",
          "name": "owner",
          "type": "address"
        },
        {
          "internalType": "uint256",
          "name": "index",
          "type": "uint256"
        }
      ],
      "name": "tokenOfOwnerByIndex",
      "outputs": [
        {
          "internalType": "uint256",
          "name": "",
          "type": "uint256"
        }
      ],
      "stateMutability": "view",
      "type": "function",
      "constant": true
    },
    {
      "inputs": [
        {
          "internalType": "uint256",
          "name": "tokenId",
          "type": "uint256"
        }
      ],
      "name": "tokenURI",
      "outputs": [
        {
          "internalType": "string",
          "name": "",
          "type": "string"
        }
      ],
      "stateMutability": "view",
      "type": "function",
      "constant": true
    },
    {
      "inputs": [],
      "name": "totalSupply",
      "outputs": [
        {
          "internalType": "uint256",
          "name": "",
          "type": "uint256"
        }
      ],
      "stateMutability": "view",
      "type": "function",
      "constant": true
    },
    {
      "inputs": [
        {
          "internalType": "address",
          "name": "from",
          "type": "address"
        },
        {
          "internalType": "address",
          "name": "to",
          "type": "address"
        },
        {
          "internalType": "uint256",
          "name": "tokenId",
          "type": "uint256"
        }
      ],
      "name": "transferFrom",
      "outputs": [],
      "stateMutability": "nonpayable",
      "type": "function"
    },
    {
      "inputs": [
        {
          "internalType": "address",
          "name": "newOwner",
          "type": "address"
        }
      ],
      "name": "transferOwnership",
      "outputs": [],
      "stateMutability": "nonpayable",
      "type": "function"
    },
    {
      "inputs": [
        {
          "internalType": "address",
          "name": "_eventAddress",
          "type": "address"
        }
      ],
      "name": "setEventAddress",
      "outputs": [],
      "stateMutability": "nonpayable",
      "type": "function"
    },
    {
      "inputs": [
        {
          "internalType": "address",
          "name": "buyer",
          "type": "address"
        },
        {
          "internalType": "uint256",
          "name": "eventId",
          "type": "uint256"
        }
      ],
      "name": "create",
      "outputs": [
        {
          "internalType": "uint256",
          "name": "",
          "type": "uint256"
        }
      ],
      "stateMutability": "nonpayable",
      "type": "function"
    },
    {
      "inputs": [
        {
          "internalType": "address",
          "name": "_owner",
          "type": "address"
        }
      ],
      "name": "tokensOfOwner",
      "outputs": [
        {
          "internalType": "uint256[]",
          "name": "",
          "type": "uint256[]"
        }
      ],
      "stateMutability": "view",
      "type": "function",
      "constant": true
    },
    {
      "inputs": [
        {
          "internalType": "uint256",
          "name": "tokenid",
          "type": "uint256"
        }
      ],
      "name": "getTicketInfo",
      "outputs": [
        {
          "components": [
            {
              "internalType": "uint256",
              "name": "eventId",
              "type": "uint256"
            },
            {
              "internalType": "bool",
              "name": "redeemed",
              "type": "bool"
            },
            {
              "internalType": "string",
              "name": "encryptedPass",
              "type": "string"
            }
          ],
          "internalType": "struct Ticket.TicketInfo",
          "name": "",
          "type": "tuple"
        }
      ],
      "stateMutability": "view",
      "type": "function",
      "constant": true
    },
    {
      "inputs": [
        {
          "internalType": "uint256",
          "name": "ticketId",
          "type": "uint256"
        },
        {
          "internalType": "string",
          "name": "pass",
          "type": "string"
        }
      ],
      "name": "setEncryptedPass",
      "outputs": [],
      "stateMutability": "nonpayable",
      "type": "function"
    },
    {
      "inputs": [
        {
          "internalType": "uint256",
          "name": "ticketId",
          "type": "uint256"
        }
      ],
      "name": "getEncryptedPass",
      "outputs": [
        {
          "internalType": "string",
          "name": "",
          "type": "string"
        }
      ],
      "stateMutability": "view",
      "type": "function",
      "constant": true
    },
    {
      "inputs": [
        {
          "internalType": "uint256",
          "name": "ticketId",
          "type": "uint256"
        }
      ],
      "name": "redeem",
      "outputs": [],
      "stateMutability": "nonpayable",
      "type": "function"
    },
    {
      "inputs": [
        {
          "internalType": "uint256",
          "name": "ticketId",
          "type": "uint256"
        },
        {
          "internalType": "uint256",
          "name": "eventId",
          "type": "uint256"
        }
      ],
      "name": "isValid",
      "outputs": [
        {
          "internalType": "bool",
          "name": "",
          "type": "bool"
        }
      ],
      "stateMutability": "view",
      "type": "function",
      "constant": true
    }
  ],
  "bytecode": "0x60806040523480156200001157600080fd5b506040518060400160405280600c81526020017f4576656e74205469636b657400000000000000000000000000000000000000008152506040518060400160405280600681526020017f5449434b45540000000000000000000000000000000000000000000000000000815250816000908051906020019062000096929190620001e8565b508060019080519060200190620000af929190620001e8565b505050620000d2620000c66200011a60201b60201c565b6200012260201b60201c565b6000600b60006101000a81548173ffffffffffffffffffffffffffffffffffffffff021916908373ffffffffffffffffffffffffffffffffffffffff160217905550620002fd565b600033905090565b6000600a60009054906101000a900473ffffffffffffffffffffffffffffffffffffffff16905081600a60006101000a81548173ffffffffffffffffffffffffffffffffffffffff021916908373ffffffffffffffffffffffffffffffffffffffff1602179055508173ffffffffffffffffffffffffffffffffffffffff168173ffffffffffffffffffffffffffffffffffffffff167f8be0079c531659141344cd1fd0a4f28419497f9722a3daafe3b4186f6b6457e060405160405180910390a35050565b828054620001f690620002c7565b90600052602060002090601f0160209004810192826200021a576000855562000266565b82601f106200023557805160ff191683800117855562000266565b8280016001018555821562000266579182015b828111156200026557825182559160200191906001019062000248565b5b50905062000275919062000279565b5090565b5b80821115620002945760008160009055506001016200027a565b5090565b7f4e487b7100000000000000000000000000000000000000000000000000000000600052602260045260246000fd5b60006002820490506001821680620002e057607f821691505b60208210811415620002f757620002f662000298565b5b50919050565b613f4b806200030d6000396000f3fe608060405234801561001057600080fd5b50600436106101cf5760003560e01c8063715018a611610104578063a22cb465116100a2578063db006a7511610071578063db006a751461057a578063e985e9c514610596578063f2fde38b146105c6578063ff99a063146105e2576101cf565b8063a22cb465146104e2578063ad507ea7146104fe578063b88d4fde1461052e578063c87b56dd1461054a576101cf565b80638a1602c1116100de5780638a1602c11461045a5780638d63976f1461048a5780638da5cb5b146104a657806395d89b41146104c4576101cf565b8063715018a6146104025780638462151c1461040c57806384d4f1a71461043c576101cf565b80632f745c591161017157806350b447121161014b57806350b44712146103545780636352211e1461038657806365264893146103b657806370a08231146103d2576101cf565b80632f745c59146102d857806342842e0e146103085780634f6ccce714610324576101cf565b8063095ea7b3116101ad578063095ea7b3146102525780630ecaea731461026e57806318160ddd1461029e57806323b872dd146102bc576101cf565b806301ffc9a7146101d457806306fdde0314610204578063081812fc14610222575b600080fd5b6101ee60048036038101906101e99190612957565b610612565b6040516101fb919061299f565b60405180910390f35b61020c61068c565b6040516102199190612a53565b60405180910390f35b61023c60048036038101906102379190612aab565b61071e565b6040516102499190612b19565b60405180910390f35b61026c60048036038101906102679190612b60565b6107a3565b005b61028860048036038101906102839190612b60565b6108bb565b6040516102959190612baf565b60405180910390f35b6102a66109e2565b6040516102b39190612baf565b60405180910390f35b6102d660048036038101906102d19190612bca565b6109ef565b005b6102f260048036038101906102ed9190612b60565b610a4f565b6040516102ff9190612baf565b60405180910390f35b610322600480360381019061031d9190612bca565b610af4565b005b61033e60048036038101906103399190612aab565b610b14565b60405161034b9190612baf565b60405180910390f35b61036e60048036038101906103699190612aab565b610b85565b60405161037d93929190612c1d565b60405180910390f35b6103a0600480360381019061039b9190612aab565b610c54565b6040516103ad9190612b19565b60405180910390f35b6103d060048036038101906103cb9190612d90565b610d06565b005b6103ec60048036038101906103e79190612dec565b610d86565b6040516103f99190612baf565b60405180910390f35b61040a610e3e565b005b61042660048036038101906104219190612dec565b610ec6565b6040516104339190612ed7565b60405180910390f35b610444610f74565b6040516104519190612b19565b60405180910390f35b610474600480360381019061046f9190612aab565b610f9a565b6040516104819190612a53565b60405180910390f35b6104a4600480360381019061049f9190612dec565b611057565b005b6104ae611117565b6040516104bb9190612b19565b60405180910390f35b6104cc611141565b6040516104d99190612a53565b60405180910390f35b6104fc60048036038101906104f79190612f25565b6111d3565b005b61051860048036038101906105139190612f65565b6111e9565b604051610525919061299f565b60405180910390f35b61054860048036038101906105439190613046565b61126f565b005b610564600480360381019061055f9190612aab565b6112d1565b6040516105719190612a53565b60405180910390f35b610594600480360381019061058f9190612aab565b611378565b005b6105b060048036038101906105ab91906130c9565b611413565b6040516105bd919061299f565b60405180910390f35b6105e060048036038101906105db9190612dec565b6114a7565b005b6105fc60048036038101906105f79190612aab565b61159f565b60405161060991906131b2565b60405180910390f35b60007f780e9d63000000000000000000000000000000000000000000000000000000007bffffffffffffffffffffffffffffffffffffffffffffffffffffffff1916827bffffffffffffffffffffffffffffffffffffffffffffffffffffffff191614806106855750610684826116d4565b5b9050919050565b60606000805461069b90613203565b80601f01602080910402602001604051908101604052809291908181526020018280546106c790613203565b80156107145780601f106106e957610100808354040283529160200191610714565b820191906000526020600020905b8154815290600101906020018083116106f757829003601f168201915b5050505050905090565b6000610729826117b6565b610768576040517f08c379a000000000000000000000000000000000000000000000000000000000815260040161075f906132a7565b60405180910390fd5b6004600083815260200190815260200160002060009054906101000a900473ffffffffffffffffffffffffffffffffffffffff169050919050565b60006107ae82610c54565b90508073ffffffffffffffffffffffffffffffffffffffff168373ffffffffffffffffffffffffffffffffffffffff16141561081f576040517f08c379a000000000000000000000000000000000000000000000000000000000815260040161081690613339565b60405180910390fd5b8073ffffffffffffffffffffffffffffffffffffffff1661083e611822565b73ffffffffffffffffffffffffffffffffffffffff16148061086d575061086c81610867611822565b611413565b5b6108ac576040517f08c379a00000000000000000000000000000000000000000000000000000000081526004016108a3906133cb565b60405180910390fd5b6108b6838361182a565b505050565b6000600b60009054906101000a900473ffffffffffffffffffffffffffffffffffffffff1673ffffffffffffffffffffffffffffffffffffffff163373ffffffffffffffffffffffffffffffffffffffff161461091757600080fd5b600c60405180606001604052808481526020016000151581526020016040518060200160405280600081525081525090806001815401808255809150506001900390600052602060002090600302016000909190919091506000820151816000015560208201518160010160006101000a81548160ff02191690831515021790555060408201518160020190805190602001906109b5929190612825565b50505060006001600c805490506109cc919061341a565b90506109d884826118e3565b8091505092915050565b6000600880549050905090565b610a006109fa611822565b82611ab1565b610a3f576040517f08c379a0000000000000000000000000000000000000000000000000000000008152600401610a36906134c0565b60405180910390fd5b610a4a838383611b8f565b505050565b6000610a5a83610d86565b8210610a9b576040517f08c379a0000000000000000000000000000000000000000000000000000000008152600401610a9290613552565b60405180910390fd5b600660008473ffffffffffffffffffffffffffffffffffffffff1673ffffffffffffffffffffffffffffffffffffffff168152602001908152602001600020600083815260200190815260200160002054905092915050565b610b0f8383836040518060200160405280600081525061126f565b505050565b6000610b1e6109e2565b8210610b5f576040517f08c379a0000000000000000000000000000000000000000000000000000000008152600401610b56906135e4565b60405180910390fd5b60088281548110610b7357610b72613604565b5b90600052602060002001549050919050565b600c8181548110610b9557600080fd5b90600052602060002090600302016000915090508060000154908060010160009054906101000a900460ff1690806002018054610bd190613203565b80601f0160208091040260200160405190810160405280929190818152602001828054610bfd90613203565b8015610c4a5780601f10610c1f57610100808354040283529160200191610c4a565b820191906000526020600020905b815481529060010190602001808311610c2d57829003601f168201915b5050505050905083565b6000806002600084815260200190815260200160002060009054906101000a900473ffffffffffffffffffffffffffffffffffffffff169050600073ffffffffffffffffffffffffffffffffffffffff168173ffffffffffffffffffffffffffffffffffffffff161415610cfd576040517f08c379a0000000000000000000000000000000000000000000000000000000008152600401610cf4906136a5565b60405180910390fd5b80915050919050565b81610d1081610c54565b73ffffffffffffffffffffffffffffffffffffffff163373ffffffffffffffffffffffffffffffffffffffff1614610d4757600080fd5b81600c8481548110610d5c57610d5b613604565b5b90600052602060002090600302016002019080519060200190610d80929190612825565b50505050565b60008073ffffffffffffffffffffffffffffffffffffffff168273ffffffffffffffffffffffffffffffffffffffff161415610df7576040517f08c379a0000000000000000000000000000000000000000000000000000000008152600401610dee90613737565b60405180910390fd5b600360008373ffffffffffffffffffffffffffffffffffffffff1673ffffffffffffffffffffffffffffffffffffffff168152602001908152602001600020549050919050565b610e46611822565b73ffffffffffffffffffffffffffffffffffffffff16610e64611117565b73ffffffffffffffffffffffffffffffffffffffff1614610eba576040517f08c379a0000000000000000000000000000000000000000000000000000000008152600401610eb1906137a3565b60405180910390fd5b610ec46000611deb565b565b60606000610ed383610d86565b905060008167ffffffffffffffff811115610ef157610ef0612c65565b5b604051908082528060200260200182016040528015610f1f5781602001602082028036833780820191505090505b50905060005b82811015610f6957610f378582610a4f565b828281518110610f4a57610f49613604565b5b6020026020010181815250508080610f61906137c3565b915050610f25565b508092505050919050565b600b60009054906101000a900473ffffffffffffffffffffffffffffffffffffffff1681565b60606000600c8381548110610fb257610fb1613604565b5b90600052602060002090600302016002018054610fce90613203565b80601f0160208091040260200160405190810160405280929190818152602001828054610ffa90613203565b80156110475780601f1061101c57610100808354040283529160200191611047565b820191906000526020600020905b81548152906001019060200180831161102a57829003601f168201915b5050505050905080915050919050565b61105f611822565b73ffffffffffffffffffffffffffffffffffffffff1661107d611117565b73ffffffffffffffffffffffffffffffffffffffff16146110d3576040517f08c379a00000000000000000000000000000000000000000000000000000000081526004016110ca906137a3565b60405180910390fd5b80600b60006101000a81548173ffffffffffffffffffffffffffffffffffffffff021916908373ffffffffffffffffffffffffffffffffffffffff16021790555050565b6000600a60009054906101000a900473ffffffffffffffffffffffffffffffffffffffff16905090565b60606001805461115090613203565b80601f016020809104026020016040519081016040528092919081815260200182805461117c90613203565b80156111c95780601f1061119e576101008083540402835291602001916111c9565b820191906000526020600020905b8154815290600101906020018083116111ac57829003601f168201915b5050505050905090565b6111e56111de611822565b8383611eb1565b5050565b60006111f4836117b6565b8015611224575081600c84815481106112105761120f613604565b5b906000526020600020906003020160000154145b8015611267575060011515600c848154811061124357611242613604565b5b906000526020600020906003020160010160009054906101000a900460ff16151514155b905092915050565b61128061127a611822565b83611ab1565b6112bf576040517f08c379a00000000000000000000000000000000000000000000000000000000081526004016112b6906134c0565b60405180910390fd5b6112cb8484848461201e565b50505050565b60606112dc826117b6565b61131b576040517f08c379a00000000000000000000000000000000000000000000000000000000081526004016113129061387e565b60405180910390fd5b600061132561207a565b905060008151116113455760405180602001604052806000815250611370565b8061134f84612091565b6040516020016113609291906138da565b6040516020818303038152906040525b915050919050565b600b60009054906101000a900473ffffffffffffffffffffffffffffffffffffffff1673ffffffffffffffffffffffffffffffffffffffff163373ffffffffffffffffffffffffffffffffffffffff16146113d257600080fd5b6001600c82815481106113e8576113e7613604565b5b906000526020600020906003020160010160006101000a81548160ff02191690831515021790555050565b6000600560008473ffffffffffffffffffffffffffffffffffffffff1673ffffffffffffffffffffffffffffffffffffffff16815260200190815260200160002060008373ffffffffffffffffffffffffffffffffffffffff1673ffffffffffffffffffffffffffffffffffffffff16815260200190815260200160002060009054906101000a900460ff16905092915050565b6114af611822565b73ffffffffffffffffffffffffffffffffffffffff166114cd611117565b73ffffffffffffffffffffffffffffffffffffffff1614611523576040517f08c379a000000000000000000000000000000000000000000000000000000000815260040161151a906137a3565b60405180910390fd5b600073ffffffffffffffffffffffffffffffffffffffff168173ffffffffffffffffffffffffffffffffffffffff161415611593576040517f08c379a000000000000000000000000000000000000000000000000000000000815260040161158a90613970565b60405180910390fd5b61159c81611deb565b50565b6115a76128ab565b816115b181610c54565b73ffffffffffffffffffffffffffffffffffffffff163373ffffffffffffffffffffffffffffffffffffffff16146115e857600080fd5b600c83815481106115fc576115fb613604565b5b9060005260206000209060030201604051806060016040529081600082015481526020016001820160009054906101000a900460ff1615151515815260200160028201805461164a90613203565b80601f016020809104026020016040519081016040528092919081815260200182805461167690613203565b80156116c35780601f10611698576101008083540402835291602001916116c3565b820191906000526020600020905b8154815290600101906020018083116116a657829003601f168201915b505050505081525050915050919050565b60007f80ac58cd000000000000000000000000000000000000000000000000000000007bffffffffffffffffffffffffffffffffffffffffffffffffffffffff1916827bffffffffffffffffffffffffffffffffffffffffffffffffffffffff1916148061179f57507f5b5e139f000000000000000000000000000000000000000000000000000000007bffffffffffffffffffffffffffffffffffffffffffffffffffffffff1916827bffffffffffffffffffffffffffffffffffffffffffffffffffffffff1916145b806117af57506117ae826121f2565b5b9050919050565b60008073ffffffffffffffffffffffffffffffffffffffff166002600084815260200190815260200160002060009054906101000a900473ffffffffffffffffffffffffffffffffffffffff1673ffffffffffffffffffffffffffffffffffffffff1614159050919050565b600033905090565b816004600083815260200190815260200160002060006101000a81548173ffffffffffffffffffffffffffffffffffffffff021916908373ffffffffffffffffffffffffffffffffffffffff160217905550808273ffffffffffffffffffffffffffffffffffffffff1661189d83610c54565b73ffffffffffffffffffffffffffffffffffffffff167f8c5be1e5ebec7d5bd14f71427d1e84f3dd0314c0f7b2291e5b200ac8c7c3b92560405160405180910390a45050565b600073ffffffffffffffffffffffffffffffffffffffff168273ffffffffffffffffffffffffffffffffffffffff161415611953576040517f08c379a000000000000000000000000000000000000000000000000000000000815260040161194a906139dc565b60405180910390fd5b61195c816117b6565b1561199c576040517f08c379a000000000000000000000000000000000000000000000000000000000815260040161199390613a48565b60405180910390fd5b6119a86000838361225c565b6001600360008473ffffffffffffffffffffffffffffffffffffffff1673ffffffffffffffffffffffffffffffffffffffff16815260200190815260200160002060008282546119f89190613a68565b92505081905550816002600083815260200190815260200160002060006101000a81548173ffffffffffffffffffffffffffffffffffffffff021916908373ffffffffffffffffffffffffffffffffffffffff160217905550808273ffffffffffffffffffffffffffffffffffffffff16600073ffffffffffffffffffffffffffffffffffffffff167fddf252ad1be2c89b69c2b068fc378daa952ba7f163c4a11628f55a4df523b3ef60405160405180910390a45050565b6000611abc826117b6565b611afb576040517f08c379a0000000000000000000000000000000000000000000000000000000008152600401611af290613b30565b60405180910390fd5b6000611b0683610c54565b90508073ffffffffffffffffffffffffffffffffffffffff168473ffffffffffffffffffffffffffffffffffffffff161480611b7557508373ffffffffffffffffffffffffffffffffffffffff16611b5d8461071e565b73ffffffffffffffffffffffffffffffffffffffff16145b80611b865750611b858185611413565b5b91505092915050565b8273ffffffffffffffffffffffffffffffffffffffff16611baf82610c54565b73ffffffffffffffffffffffffffffffffffffffff1614611c05576040517f08c379a0000000000000000000000000000000000000000000000000000000008152600401611bfc90613bc2565b60405180910390fd5b600073ffffffffffffffffffffffffffffffffffffffff168273ffffffffffffffffffffffffffffffffffffffff161415611c75576040517f08c379a0000000000000000000000000000000000000000000000000000000008152600401611c6c90613c54565b60405180910390fd5b611c8083838361225c565b611c8b60008261182a565b6001600360008573ffffffffffffffffffffffffffffffffffffffff1673ffffffffffffffffffffffffffffffffffffffff1681526020019081526020016000206000828254611cdb919061341a565b925050819055506001600360008473ffffffffffffffffffffffffffffffffffffffff1673ffffffffffffffffffffffffffffffffffffffff1681526020019081526020016000206000828254611d329190613a68565b92505081905550816002600083815260200190815260200160002060006101000a81548173ffffffffffffffffffffffffffffffffffffffff021916908373ffffffffffffffffffffffffffffffffffffffff160217905550808273ffffffffffffffffffffffffffffffffffffffff168473ffffffffffffffffffffffffffffffffffffffff167fddf252ad1be2c89b69c2b068fc378daa952ba7f163c4a11628f55a4df523b3ef60405160405180910390a4505050565b6000600a60009054906101000a900473ffffffffffffffffffffffffffffffffffffffff16905081600a60006101000a81548173ffffffffffffffffffffffffffffffffffffffff021916908373ffffffffffffffffffffffffffffffffffffffff1602179055508173ffffffffffffffffffffffffffffffffffffffff168173ffffffffffffffffffffffffffffffffffffffff167f8be0079c531659141344cd1fd0a4f28419497f9722a3daafe3b4186f6b6457e060405160405180910390a35050565b8173ffffffffffffffffffffffffffffffffffffffff168373ffffffffffffffffffffffffffffffffffffffff161415611f20576040517f08c379a0000000000000000000000000000000000000000000000000000000008152600401611f1790613cc0565b60405180910390fd5b80600560008573ffffffffffffffffffffffffffffffffffffffff1673ffffffffffffffffffffffffffffffffffffffff16815260200190815260200160002060008473ffffffffffffffffffffffffffffffffffffffff1673ffffffffffffffffffffffffffffffffffffffff16815260200190815260200160002060006101000a81548160ff0219169083151502179055508173ffffffffffffffffffffffffffffffffffffffff168373ffffffffffffffffffffffffffffffffffffffff167f17307eab39ab6107e8899845ad3d59bd9653f200f220920489ca2b5937696c3183604051612011919061299f565b60405180910390a3505050565b612029848484611b8f565b61203584848484612370565b612074576040517f08c379a000000000000000000000000000000000000000000000000000000000815260040161206b90613d52565b60405180910390fd5b50505050565b606060405180602001604052806000815250905090565b606060008214156120d9576040518060400160405280600181526020017f300000000000000000000000000000000000000000000000000000000000000081525090506121ed565b600082905060005b6000821461210b5780806120f4906137c3565b915050600a826121049190613da1565b91506120e1565b60008167ffffffffffffffff81111561212757612126612c65565b5b6040519080825280601f01601f1916602001820160405280156121595781602001600182028036833780820191505090505b5090505b600085146121e657600182612172919061341a565b9150600a856121819190613dd2565b603061218d9190613a68565b60f81b8183815181106121a3576121a2613604565b5b60200101907effffffffffffffffffffffffffffffffffffffffffffffffffffffffffffff1916908160001a905350600a856121df9190613da1565b945061215d565b8093505050505b919050565b60007f01ffc9a7000000000000000000000000000000000000000000000000000000007bffffffffffffffffffffffffffffffffffffffffffffffffffffffff1916827bffffffffffffffffffffffffffffffffffffffffffffffffffffffff1916149050919050565b612267838383612507565b600073ffffffffffffffffffffffffffffffffffffffff168373ffffffffffffffffffffffffffffffffffffffff1614156122aa576122a58161250c565b6122e9565b8173ffffffffffffffffffffffffffffffffffffffff168373ffffffffffffffffffffffffffffffffffffffff16146122e8576122e78382612555565b5b5b600073ffffffffffffffffffffffffffffffffffffffff168273ffffffffffffffffffffffffffffffffffffffff16141561232c57612327816126c2565b61236b565b8273ffffffffffffffffffffffffffffffffffffffff168273ffffffffffffffffffffffffffffffffffffffff161461236a576123698282612793565b5b5b505050565b60006123918473ffffffffffffffffffffffffffffffffffffffff16612812565b156124fa578373ffffffffffffffffffffffffffffffffffffffff1663150b7a026123ba611822565b8786866040518563ffffffff1660e01b81526004016123dc9493929190613e58565b602060405180830381600087803b1580156123f657600080fd5b505af192505050801561242757506040513d601f19601f820116820180604052508101906124249190613eb9565b60015b6124aa573d8060008114612457576040519150601f19603f3d011682016040523d82523d6000602084013e61245c565b606091505b506000815114156124a2576040517f08c379a000000000000000000000000000000000000000000000000000000000815260040161249990613d52565b60405180910390fd5b805181602001fd5b63150b7a0260e01b7bffffffffffffffffffffffffffffffffffffffffffffffffffffffff1916817bffffffffffffffffffffffffffffffffffffffffffffffffffffffff1916149150506124ff565b600190505b949350505050565b505050565b6008805490506009600083815260200190815260200160002081905550600881908060018154018082558091505060019003906000526020600020016000909190919091505550565b6000600161256284610d86565b61256c919061341a565b9050600060076000848152602001908152602001600020549050818114612651576000600660008673ffffffffffffffffffffffffffffffffffffffff1673ffffffffffffffffffffffffffffffffffffffff168152602001908152602001600020600084815260200190815260200160002054905080600660008773ffffffffffffffffffffffffffffffffffffffff1673ffffffffffffffffffffffffffffffffffffffff168152602001908152602001600020600084815260200190815260200160002081905550816007600083815260200190815260200160002081905550505b6007600084815260200190815260200160002060009055600660008573ffffffffffffffffffffffffffffffffffffffff1673ffffffffffffffffffffffffffffffffffffffff16815260200190815260200160002060008381526020019081526020016000206000905550505050565b600060016008805490506126d6919061341a565b905060006009600084815260200190815260200160002054905060006008838154811061270657612705613604565b5b90600052602060002001549050806008838154811061272857612727613604565b5b90600052602060002001819055508160096000838152602001908152602001600020819055506009600085815260200190815260200160002060009055600880548061277757612776613ee6565b5b6001900381819060005260206000200160009055905550505050565b600061279e83610d86565b905081600660008573ffffffffffffffffffffffffffffffffffffffff1673ffffffffffffffffffffffffffffffffffffffff168152602001908152602001600020600083815260200190815260200160002081905550806007600084815260200190815260200160002081905550505050565b600080823b905060008111915050919050565b82805461283190613203565b90600052602060002090601f016020900481019282612853576000855561289a565b82601f1061286c57805160ff191683800117855561289a565b8280016001018555821561289a579182015b8281111561289957825182559160200191906001019061287e565b5b5090506128a791906128ce565b5090565b604051806060016040528060008152602001600015158152602001606081525090565b5b808211156128e75760008160009055506001016128cf565b5090565b6000604051905090565b600080fd5b600080fd5b60007fffffffff0000000000000000000000000000000000000000000000000000000082169050919050565b612934816128ff565b811461293f57600080fd5b50565b6000813590506129518161292b565b92915050565b60006020828403121561296d5761296c6128f5565b5b600061297b84828501612942565b91505092915050565b60008115159050919050565b61299981612984565b82525050565b60006020820190506129b46000830184612990565b92915050565b600081519050919050565b600082825260208201905092915050565b60005b838110156129f45780820151818401526020810190506129d9565b83811115612a03576000848401525b50505050565b6000601f19601f8301169050919050565b6000612a25826129ba565b612a2f81856129c5565b9350612a3f8185602086016129d6565b612a4881612a09565b840191505092915050565b60006020820190508181036000830152612a6d8184612a1a565b905092915050565b6000819050919050565b612a8881612a75565b8114612a9357600080fd5b50565b600081359050612aa581612a7f565b92915050565b600060208284031215612ac157612ac06128f5565b5b6000612acf84828501612a96565b91505092915050565b600073ffffffffffffffffffffffffffffffffffffffff82169050919050565b6000612b0382612ad8565b9050919050565b612b1381612af8565b82525050565b6000602082019050612b2e6000830184612b0a565b92915050565b612b3d81612af8565b8114612b4857600080fd5b50565b600081359050612b5a81612b34565b92915050565b60008060408385031215612b7757612b766128f5565b5b6000612b8585828601612b4b565b9250506020612b9685828601612a96565b9150509250929050565b612ba981612a75565b82525050565b6000602082019050612bc46000830184612ba0565b92915050565b600080600060608486031215612be357612be26128f5565b5b6000612bf186828701612b4b565b9350506020612c0286828701612b4b565b9250506040612c1386828701612a96565b9150509250925092565b6000606082019050612c326000830186612ba0565b612c3f6020830185612990565b8181036040830152612c518184612a1a565b9050949350505050565b600080fd5b600080fd5b7f4e487b7100000000000000000000000000000000000000000000000000000000600052604160045260246000fd5b612c9d82612a09565b810181811067ffffffffffffffff82111715612cbc57612cbb612c65565b5b80604052505050565b6000612ccf6128eb565b9050612cdb8282612c94565b919050565b600067ffffffffffffffff821115612cfb57612cfa612c65565b5b612d0482612a09565b9050602081019050919050565b82818337600083830152505050565b6000612d33612d2e84612ce0565b612cc5565b905082815260208101848484011115612d4f57612d4e612c60565b5b612d5a848285612d11565b509392505050565b600082601f830112612d7757612d76612c5b565b5b8135612d87848260208601612d20565b91505092915050565b60008060408385031215612da757612da66128f5565b5b6000612db585828601612a96565b925050602083013567ffffffffffffffff811115612dd657612dd56128fa565b5b612de285828601612d62565b9150509250929050565b600060208284031215612e0257612e016128f5565b5b6000612e1084828501612b4b565b91505092915050565b600081519050919050565b600082825260208201905092915050565b6000819050602082019050919050565b612e4e81612a75565b82525050565b6000612e608383612e45565b60208301905092915050565b6000602082019050919050565b6000612e8482612e19565b612e8e8185612e24565b9350612e9983612e35565b8060005b83811015612eca578151612eb18882612e54565b9750612ebc83612e6c565b925050600181019050612e9d565b5085935050505092915050565b60006020820190508181036000830152612ef18184612e79565b905092915050565b612f0281612984565b8114612f0d57600080fd5b50565b600081359050612f1f81612ef9565b92915050565b60008060408385031215612f3c57612f3b6128f5565b5b6000612f4a85828601612b4b565b9250506020612f5b85828601612f10565b9150509250929050565b60008060408385031215612f7c57612f7b6128f5565b5b6000612f8a85828601612a96565b9250506020612f9b85828601612a96565b9150509250929050565b600067ffffffffffffffff821115612fc057612fbf612c65565b5b612fc982612a09565b9050602081019050919050565b6000612fe9612fe484612fa5565b612cc5565b90508281526020810184848401111561300557613004612c60565b5b613010848285612d11565b509392505050565b600082601f83011261302d5761302c612c5b565b5b813561303d848260208601612fd6565b91505092915050565b600080600080608085870312156130605761305f6128f5565b5b600061306e87828801612b4b565b945050602061307f87828801612b4b565b935050604061309087828801612a96565b925050606085013567ffffffffffffffff8111156130b1576130b06128fa565b5b6130bd87828801613018565b91505092959194509250565b600080604083850312156130e0576130df6128f5565b5b60006130ee85828601612b4b565b92505060206130ff85828601612b4b565b9150509250929050565b61311281612984565b82525050565b600082825260208201905092915050565b6000613134826129ba565b61313e8185613118565b935061314e8185602086016129d6565b61315781612a09565b840191505092915050565b600060608301600083015161317a6000860182612e45565b50602083015161318d6020860182613109565b50604083015184820360408601526131a58282613129565b9150508091505092915050565b600060208201905081810360008301526131cc8184613162565b905092915050565b7f4e487b7100000000000000000000000000000000000000000000000000000000600052602260045260246000fd5b6000600282049050600182168061321b57607f821691505b6020821081141561322f5761322e6131d4565b5b50919050565b7f4552433732313a20617070726f76656420717565727920666f72206e6f6e657860008201527f697374656e7420746f6b656e0000000000000000000000000000000000000000602082015250565b6000613291602c836129c5565b915061329c82613235565b604082019050919050565b600060208201905081810360008301526132c081613284565b9050919050565b7f4552433732313a20617070726f76616c20746f2063757272656e74206f776e6560008201527f7200000000000000000000000000000000000000000000000000000000000000602082015250565b60006133236021836129c5565b915061332e826132c7565b604082019050919050565b6000602082019050818103600083015261335281613316565b9050919050565b7f4552433732313a20617070726f76652063616c6c6572206973206e6f74206f7760008201527f6e6572206e6f7220617070726f76656420666f7220616c6c0000000000000000602082015250565b60006133b56038836129c5565b91506133c082613359565b604082019050919050565b600060208201905081810360008301526133e4816133a8565b9050919050565b7f4e487b7100000000000000000000000000000000000000000000000000000000600052601160045260246000fd5b600061342582612a75565b915061343083612a75565b925082821015613443576134426133eb565b5b828203905092915050565b7f4552433732313a207472616e736665722063616c6c6572206973206e6f74206f60008201527f776e6572206e6f7220617070726f766564000000000000000000000000000000602082015250565b60006134aa6031836129c5565b91506134b58261344e565b604082019050919050565b600060208201905081810360008301526134d98161349d565b9050919050565b7f455243373231456e756d657261626c653a206f776e657220696e646578206f7560008201527f74206f6620626f756e6473000000000000000000000000000000000000000000602082015250565b600061353c602b836129c5565b9150613547826134e0565b604082019050919050565b6000602082019050818103600083015261356b8161352f565b9050919050565b7f455243373231456e756d657261626c653a20676c6f62616c20696e646578206f60008201527f7574206f6620626f756e64730000000000000000000000000000000000000000602082015250565b60006135ce602c836129c5565b91506135d982613572565b604082019050919050565b600060208201905081810360008301526135fd816135c1565b9050919050565b7f4e487b7100000000000000000000000000000000000000000000000000000000600052603260045260246000fd5b7f4552433732313a206f776e657220717565727920666f72206e6f6e657869737460008201527f656e7420746f6b656e0000000000000000000000000000000000000000000000602082015250565b600061368f6029836129c5565b915061369a82613633565b604082019050919050565b600060208201905081810360008301526136be81613682565b9050919050565b7f4552433732313a2062616c616e636520717565727920666f7220746865207a6560008201527f726f206164647265737300000000000000000000000000000000000000000000602082015250565b6000613721602a836129c5565b915061372c826136c5565b604082019050919050565b6000602082019050818103600083015261375081613714565b9050919050565b7f4f776e61626c653a2063616c6c6572206973206e6f7420746865206f776e6572600082015250565b600061378d6020836129c5565b915061379882613757565b602082019050919050565b600060208201905081810360008301526137bc81613780565b9050919050565b60006137ce82612a75565b91507fffffffffffffffffffffffffffffffffffffffffffffffffffffffffffffffff821415613801576138006133eb565b5b600182019050919050565b7f4552433732314d657461646174613a2055524920717565727920666f72206e6f60008201527f6e6578697374656e7420746f6b656e0000000000000000000000000000000000602082015250565b6000613868602f836129c5565b91506138738261380c565b604082019050919050565b600060208201905081810360008301526138978161385b565b9050919050565b600081905092915050565b60006138b4826129ba565b6138be818561389e565b93506138ce8185602086016129d6565b80840191505092915050565b60006138e682856138a9565b91506138f282846138a9565b91508190509392505050565b7f4f776e61626c653a206e6577206f776e657220697320746865207a65726f206160008201527f6464726573730000000000000000000000000000000000000000000000000000602082015250565b600061395a6026836129c5565b9150613965826138fe565b604082019050919050565b600060208201905081810360008301526139898161394d565b9050919050565b7f4552433732313a206d696e7420746f20746865207a65726f2061646472657373600082015250565b60006139c66020836129c5565b91506139d182613990565b602082019050919050565b600060208201905081810360008301526139f5816139b9565b9050919050565b7f4552433732313a20746f6b656e20616c7265616479206d696e74656400000000600082015250565b6000613a32601c836129c5565b9150613a3d826139fc565b602082019050919050565b60006020820190508181036000830152613a6181613a25565b9050919050565b6000613a7382612a75565b9150613a7e83612a75565b9250827fffffffffffffffffffffffffffffffffffffffffffffffffffffffffffffffff03821115613ab357613ab26133eb565b5b828201905092915050565b7f4552433732313a206f70657261746f7220717565727920666f72206e6f6e657860008201527f697374656e7420746f6b656e0000000000000000000000000000000000000000602082015250565b6000613b1a602c836129c5565b9150613b2582613abe565b604082019050919050565b60006020820190508181036000830152613b4981613b0d565b9050919050565b7f4552433732313a207472616e73666572206f6620746f6b656e2074686174206960008201527f73206e6f74206f776e0000000000000000000000000000000000000000000000602082015250565b6000613bac6029836129c5565b9150613bb782613b50565b604082019050919050565b60006020820190508181036000830152613bdb81613b9f565b9050919050565b7f4552433732313a207472616e7366657220746f20746865207a65726f2061646460008201527f7265737300000000000000000000000000000000000000000000000000000000602082015250565b6000613c3e6024836129c5565b9150613c4982613be2565b604082019050919050565b60006020820190508181036000830152613c6d81613c31565b9050919050565b7f4552433732313a20617070726f766520746f2063616c6c657200000000000000600082015250565b6000613caa6019836129c5565b9150613cb582613c74565b602082019050919050565b60006020820190508181036000830152613cd981613c9d565b9050919050565b7f4552433732313a207472616e7366657220746f206e6f6e20455243373231526560008201527f63656976657220696d706c656d656e7465720000000000000000000000000000602082015250565b6000613d3c6032836129c5565b9150613d4782613ce0565b604082019050919050565b60006020820190508181036000830152613d6b81613d2f565b9050919050565b7f4e487b7100000000000000000000000000000000000000000000000000000000600052601260045260246000fd5b6000613dac82612a75565b9150613db783612a75565b925082613dc757613dc6613d72565b5b828204905092915050565b6000613ddd82612a75565b9150613de883612a75565b925082613df857613df7613d72565b5b828206905092915050565b600081519050919050565b600082825260208201905092915050565b6000613e2a82613e03565b613e348185613e0e565b9350613e448185602086016129d6565b613e4d81612a09565b840191505092915050565b6000608082019050613e6d6000830187612b0a565b613e7a6020830186612b0a565b613e876040830185612ba0565b8181036060830152613e998184613e1f565b905095945050505050565b600081519050613eb38161292b565b92915050565b600060208284031215613ecf57613ece6128f5565b5b6000613edd84828501613ea4565b91505092915050565b7f4e487b7100000000000000000000000000000000000000000000000000000000600052603160045260246000fdfea2646970667358221220b72a26339181ddd608bee28f69400a6ef83ab5d8e3b0c64ce721f63f09af355564736f6c63430008090033",
  "immutableReferences": {},
  "source": "pragma solidity 0.8.9;\r\nimport \"@openzeppelin/contracts/access/Ownable.sol\";\r\nimport \"@openzeppelin/contracts/token/ERC721/extensions/ERC721Enumerable.sol\";\r\n\r\ncontract Ticket is ERC721Enumerable, Ownable{\r\n    address public eventContractAddress;\r\n\r\n\r\n\r\n    struct TicketInfo {\r\n        uint256 eventId;\r\n        bool redeemed;\r\n        string encryptedPass;\r\n    }\r\n\r\n\r\n    //todo eventueel add mappings waar relatie tussen owner en tokens in beide richting worden opgeslaan\r\n\r\n    TicketInfo[] public tickets;\r\n\r\n    modifier onlyEventContract() {\r\n        require(msg.sender == eventContractAddress);\r\n        _;\r\n    }\r\n\r\n    modifier onlyTicketOwner(uint id) {\r\n        require(msg.sender == ownerOf(id));\r\n        _;\r\n    }\r\n\r\n    constructor() ERC721(\"Event Ticket\", \"TICKET\") public {\r\n        eventContractAddress = address(0);\r\n    }\r\n\r\n    function setEventAddress(address _eventAddress) external onlyOwner {\r\n        eventContractAddress = _eventAddress;\r\n    }\r\n\r\n\r\n    function create (address buyer, uint256 eventId) external onlyEventContract returns (uint) {\r\n        tickets.push(TicketInfo(eventId, false, \"\"));\r\n        uint id = tickets.length - 1;\r\n        _mint(buyer, id);\r\n        return id;\r\n    }\r\n\r\n    function tokensOfOwner(address _owner) external view returns (uint[] memory) {\r\n        uint tokenCount = balanceOf(_owner);\r\n        uint[] memory tokensId = new uint256[](tokenCount);\r\n        for(uint i = 0; i < tokenCount; i++) {\r\n            tokensId[i] = tokenOfOwnerByIndex(_owner, i);\r\n        }\r\n        return tokensId;\r\n    }\r\n\r\n    function getTicketInfo(uint tokenid) external view onlyTicketOwner(tokenid) returns (TicketInfo memory) {\r\n        return tickets[tokenid];\r\n    }\r\n\r\n    function setEncryptedPass(uint ticketId, string memory pass) onlyTicketOwner(ticketId) external {\r\n        tickets[ticketId].encryptedPass = pass;\r\n    }\r\n\r\n    function getEncryptedPass(uint ticketId) external  view returns (string memory) {\r\n        string memory pass = tickets[ticketId].encryptedPass;\r\n        return pass;\r\n    }\r\n\r\n    function redeem(uint ticketId) external onlyEventContract {\r\n        tickets[ticketId].redeemed = true;\r\n    }\r\n\r\n    function isValid(uint ticketId, uint eventId) external view returns (bool) {\r\n        return\r\n        _exists(ticketId) &&\r\n        (tickets[ticketId].eventId == eventId) &&\r\n        (tickets[ticketId].redeemed != true);\r\n    }\r\n\r\n\r\n}\r\n",
  "sourcePath": "D:\\Code\\event_ticket\\contracts\\Ticket.sol",
  "compiler": {
    "name": "solc",
    "version": "0.8.9+commit.e5eed63a.Emscripten.clang"
  },
  "schemaVersion": "3.4.4",
  "updatedAt": "2022-01-08T23:25:37.128Z",
  "networkType": "ethereum",
  "devdoc": {
    "kind": "dev",
    "methods": {
      "approve(address,uint256)": {
        "details": "See {IERC721-approve}."
      },
      "balanceOf(address)": {
        "details": "See {IERC721-balanceOf}."
      },
      "getApproved(uint256)": {
        "details": "See {IERC721-getApproved}."
      },
      "isApprovedForAll(address,address)": {
        "details": "See {IERC721-isApprovedForAll}."
      },
      "name()": {
        "details": "See {IERC721Metadata-name}."
      },
      "owner()": {
        "details": "Returns the address of the current owner."
      },
      "ownerOf(uint256)": {
        "details": "See {IERC721-ownerOf}."
      },
      "renounceOwnership()": {
        "details": "Leaves the contract without owner. It will not be possible to call `onlyOwner` functions anymore. Can only be called by the current owner. NOTE: Renouncing ownership will leave the contract without an owner, thereby removing any functionality that is only available to the owner."
      },
      "safeTransferFrom(address,address,uint256)": {
        "details": "See {IERC721-safeTransferFrom}."
      },
      "safeTransferFrom(address,address,uint256,bytes)": {
        "details": "See {IERC721-safeTransferFrom}."
      },
      "setApprovalForAll(address,bool)": {
        "details": "See {IERC721-setApprovalForAll}."
      },
      "supportsInterface(bytes4)": {
        "details": "See {IERC165-supportsInterface}."
      },
      "symbol()": {
        "details": "See {IERC721Metadata-symbol}."
      },
      "tokenByIndex(uint256)": {
        "details": "See {IERC721Enumerable-tokenByIndex}."
      },
      "tokenOfOwnerByIndex(address,uint256)": {
        "details": "See {IERC721Enumerable-tokenOfOwnerByIndex}."
      },
      "tokenURI(uint256)": {
        "details": "See {IERC721Metadata-tokenURI}."
      },
      "totalSupply()": {
        "details": "See {IERC721Enumerable-totalSupply}."
      },
      "transferFrom(address,address,uint256)": {
        "details": "See {IERC721-transferFrom}."
      },
      "transferOwnership(address)": {
        "details": "Transfers ownership of the contract to a new account (`newOwner`). Can only be called by the current owner."
      }
    },
    "version": 1
  },
  "userdoc": {
    "kind": "user",
    "methods": {},
    "version": 1
  }
}